{"abi":[{"type":"constructor","inputs":[{"name":"_pointsToken","type":"address","internalType":"address"},{"name":"_challengeFactory","type":"address","internalType":"address"}],"stateMutability":"nonpayable"},{"type":"function","name":"challengeFactory","inputs":[],"outputs":[{"name":"","type":"address","internalType":"address"}],"stateMutability":"view"},{"type":"function","name":"challengeParticipants","inputs":[{"name":"","type":"uint256","internalType":"uint256"},{"name":"","type":"uint256","internalType":"uint256"}],"outputs":[{"name":"","type":"address","internalType":"address"}],"stateMutability":"view"},{"type":"function","name":"clearExpiredLocks","inputs":[{"name":"user","type":"address","internalType":"address"}],"outputs":[],"stateMutability":"nonpayable"},{"type":"function","name":"getChallengeParticipants","inputs":[{"name":"challengeId","type":"uint256","internalType":"uint256"}],"outputs":[{"name":"","type":"address[]","internalType":"address[]"}],"stateMutability":"view"},{"type":"function","name":"getTotalLockedPoints","inputs":[{"name":"user","type":"address","internalType":"address"}],"outputs":[{"name":"","type":"uint256","internalType":"uint256"}],"stateMutability":"view"},{"type":"function","name":"getUserLockedPoints","inputs":[{"name":"user","type":"address","internalType":"address"}],"outputs":[{"name":"","type":"tuple[]","internalType":"struct PointsEscrow.LockedPoints[]","components":[{"name":"amount","type":"uint256","internalType":"uint256"},{"name":"lockedAt","type":"uint256","internalType":"uint256"},{"name":"challengeId","type":"uint256","internalType":"uint256"},{"name":"reason","type":"string","internalType":"string"}]}],"stateMutability":"view"},{"type":"function","name":"lockPoints","inputs":[{"name":"user","type":"address","internalType":"address"},{"name":"amount","type":"uint256","internalType":"uint256"},{"name":"challengeId","type":"uint256","internalType":"uint256"},{"name":"reason","type":"string","internalType":"string"}],"outputs":[],"stateMutability":"nonpayable"},{"type":"function","name":"owner","inputs":[],"outputs":[{"name":"","type":"address","internalType":"address"}],"stateMutability":"view"},{"type":"function","name":"pointsToken","inputs":[],"outputs":[{"name":"","type":"address","internalType":"contract BantahPoints"}],"stateMutability":"view"},{"type":"function","name":"releasePoints","inputs":[{"name":"user","type":"address","internalType":"address"},{"name":"amount","type":"uint256","internalType":"uint256"},{"name":"challengeId","type":"uint256","internalType":"uint256"}],"outputs":[],"stateMutability":"nonpayable"},{"type":"function","name":"renounceOwnership","inputs":[],"outputs":[],"stateMutability":"nonpayable"},{"type":"function","name":"setChallengeFactory","inputs":[{"name":"newFactory","type":"address","internalType":"address"}],"outputs":[],"stateMutability":"nonpayable"},{"type":"function","name":"totalLockedPoints","inputs":[{"name":"","type":"address","internalType":"address"}],"outputs":[{"name":"","type":"uint256","internalType":"uint256"}],"stateMutability":"view"},{"type":"function","name":"transferLockedPoints","inputs":[{"name":"loser","type":"address","internalType":"address"},{"name":"winner","type":"address","internalType":"address"},{"name":"amount","type":"uint256","internalType":"uint256"},{"name":"challengeId","type":"uint256","internalType":"uint256"}],"outputs":[],"stateMutability":"nonpayable"},{"type":"function","name":"transferOwnership","inputs":[{"name":"newOwner","type":"address","internalType":"address"}],"outputs":[],"stateMutability":"nonpayable"},{"type":"function","name":"userLockedPoints","inputs":[{"name":"","type":"address","internalType":"address"},{"name":"","type":"uint256","internalType":"uint256"}],"outputs":[{"name":"amount","type":"uint256","internalType":"uint256"},{"name":"lockedAt","type":"uint256","internalType":"uint256"},{"name":"challengeId","type":"uint256","internalType":"uint256"},{"name":"reason","type":"string","internalType":"string"}],"stateMutability":"view"},{"type":"event","name":"ChallengeFactoryUpdated","inputs":[{"name":"newFactory","type":"address","indexed":true,"internalType":"address"}],"anonymous":false},{"type":"event","name":"OwnershipTransferred","inputs":[{"name":"previousOwner","type":"address","indexed":true,"internalType":"address"},{"name":"newOwner","type":"address","indexed":true,"internalType":"address"}],"anonymous":false},{"type":"event","name":"PointsLocked","inputs":[{"name":"user","type":"address","indexed":true,"internalType":"address"},{"name":"amount","type":"uint256","indexed":false,"internalType":"uint256"},{"name":"challengeId","type":"uint256","indexed":true,"internalType":"uint256"},{"name":"reason","type":"string","indexed":false,"internalType":"string"}],"anonymous":false},{"type":"event","name":"PointsReleased","inputs":[{"name":"user","type":"address","indexed":true,"internalType":"address"},{"name":"amount","type":"uint256","indexed":false,"internalType":"uint256"},{"name":"challengeId","type":"uint256","indexed":true,"internalType":"uint256"}],"anonymous":false},{"type":"event","name":"PointsTransferred","inputs":[{"name":"from","type":"address","indexed":true,"internalType":"address"},{"name":"to","type":"address","indexed":true,"internalType":"address"},{"name":"amount","type":"uint256","indexed":false,"internalType":"uint256"},{"name":"challengeId","type":"uint256","indexed":true,"internalType":"uint256"},{"name":"reason","type":"string","indexed":false,"internalType":"string"}],"anonymous":false},{"type":"error","name":"OwnableInvalidOwner","inputs":[{"name":"owner","type":"address","internalType":"address"}]},{"type":"error","name":"OwnableUnauthorizedAccount","inputs":[{"name":"account","type":"address","internalType":"address"}]},{"type":"error","name":"ReentrancyGuardReentrantCall","inputs":[]}],"bytecode":{"object":"0x608060405234801561000f575f5ffd5b50604051612cee380380612cee8339818101604052810190610031919061038a565b33600161005061004561023960201b60201c565b61026260201b60201c565b5f01819055505f73ffffffffffffffffffffffffffffffffffffffff168173ffffffffffffffffffffffffffffffffffffffff16036100c6575f6040517f1e4fbdf70000000000000000000000000000000000000000000000000000000081526004016100bd91906103d7565b60405180910390fd5b6100d58161026b60201b60201c565b505f73ffffffffffffffffffffffffffffffffffffffff168273ffffffffffffffffffffffffffffffffffffffff1603610144576040517f08c379a000000000000000000000000000000000000000000000000000000000815260040161013b9061044a565b60405180910390fd5b5f73ffffffffffffffffffffffffffffffffffffffff168173ffffffffffffffffffffffffffffffffffffffff16036101b2576040517f08c379a00000000000000000000000000000000000000000000000000000000081526004016101a9906104b2565b60405180910390fd5b8160015f6101000a81548173ffffffffffffffffffffffffffffffffffffffff021916908373ffffffffffffffffffffffffffffffffffffffff1602179055508060025f6101000a81548173ffffffffffffffffffffffffffffffffffffffff021916908373ffffffffffffffffffffffffffffffffffffffff16021790555050506104d0565b5f7f9b779b17422d0df92223018b32b4d1fa46e071723d6817e2486d003becc55f005f1b905090565b5f819050919050565b5f5f5f9054906101000a900473ffffffffffffffffffffffffffffffffffffffff169050815f5f6101000a81548173ffffffffffffffffffffffffffffffffffffffff021916908373ffffffffffffffffffffffffffffffffffffffff1602179055508173ffffffffffffffffffffffffffffffffffffffff168173ffffffffffffffffffffffffffffffffffffffff167f8be0079c531659141344cd1fd0a4f28419497f9722a3daafe3b4186f6b6457e060405160405180910390a35050565b5f5ffd5b5f73ffffffffffffffffffffffffffffffffffffffff82169050919050565b5f61035982610330565b9050919050565b6103698161034f565b8114610373575f5ffd5b50565b5f8151905061038481610360565b92915050565b5f5f604083850312156103a05761039f61032c565b5b5f6103ad85828601610376565b92505060206103be85828601610376565b9150509250929050565b6103d18161034f565b82525050565b5f6020820190506103ea5f8301846103c8565b92915050565b5f82825260208201905092915050565b7f496e76616c696420706f696e747320746f6b656e0000000000000000000000005f82015250565b5f6104346014836103f0565b915061043f82610400565b602082019050919050565b5f6020820190508181035f83015261046181610428565b9050919050565b7f496e76616c696420666163746f727900000000000000000000000000000000005f82015250565b5f61049c600f836103f0565b91506104a782610468565b602082019050919050565b5f6020820190508181035f8301526104c981610490565b9050919050565b612811806104dd5f395ff3fe608060405234801561000f575f5ffd5b50600436106100fe575f3560e01c8063820a16fe11610095578063b1b414d611610064578063b1b414d614610282578063edda7bfd146102b2578063f2fde38b146102e5578063ffac1a9514610301576100fe565b8063820a16fe146101fc5780638da5cb5b146102185780638e47dc221461023657806392fc0b4b14610266576100fe565b80635c3d9dec116100d15780635c3d9dec1461019a5780635dbaf68b146101b6578063715018a6146101d457806372e1011c146101de576100fe565b8063023bf958146101025780630c93a0a8146101325780633e0415111461014e57806354bba1a81461016a575b5f5ffd5b61011c6004803603810190610117919061178e565b610331565b60405161012991906118a0565b60405180910390f35b61014c600480360381019061014791906118ea565b6103cd565b005b6101686004803603810190610163919061194e565b610754565b005b610184600480360381019061017f919061194e565b610939565b6040516101919190611b13565b60405180910390f35b6101b460048036038101906101af919061194e565b610a7f565b005b6101be610b7b565b6040516101cb9190611b42565b60405180910390f35b6101dc610ba0565b005b6101e6610bb3565b6040516101f39190611bb6565b60405180910390f35b61021660048036038101906102119190611c30565b610bd8565b005b610220610fc7565b60405161022d9190611b42565b60405180910390f35b610250600480360381019061024b919061194e565b610fee565b60405161025d9190611cc3565b60405180910390f35b610280600480360381019061027b9190611cdc565b611003565b005b61029c6004803603810190610297919061194e565b611304565b6040516102a99190611cc3565b60405180910390f35b6102cc60048036038101906102c79190611d2c565b61134a565b6040516102dc9493929190611db2565b60405180910390f35b6102ff60048036038101906102fa919061194e565b611416565b005b61031b60048036038101906103169190611dfc565b61149a565b6040516103289190611b42565b60405180910390f35b606060055f8381526020019081526020015f208054806020026020016040519081016040528092919081815260200182805480156103c157602002820191905f5260205f20905b815f9054906101000a900473ffffffffffffffffffffffffffffffffffffffff1673ffffffffffffffffffffffffffffffffffffffff1681526020019060010190808311610378575b50505050509050919050565b60025f9054906101000a900473ffffffffffffffffffffffffffffffffffffffff1673ffffffffffffffffffffffffffffffffffffffff163373ffffffffffffffffffffffffffffffffffffffff161461045c576040517f08c379a000000000000000000000000000000000000000000000000000000000815260040161045390611e84565b60405180910390fd5b6104646114e2565b5f73ffffffffffffffffffffffffffffffffffffffff168473ffffffffffffffffffffffffffffffffffffffff16036104d2576040517f08c379a00000000000000000000000000000000000000000000000000000000081526004016104c990611eec565b60405180910390fd5b5f73ffffffffffffffffffffffffffffffffffffffff168373ffffffffffffffffffffffffffffffffffffffff1603610540576040517f08c379a000000000000000000000000000000000000000000000000000000000815260040161053790611f54565b60405180910390fd5b5f8211610582576040517f08c379a000000000000000000000000000000000000000000000000000000000815260040161057990611fbc565b60405180910390fd5b8160045f8673ffffffffffffffffffffffffffffffffffffffff1673ffffffffffffffffffffffffffffffffffffffff1681526020019081526020015f20541015610602576040517f08c379a00000000000000000000000000000000000000000000000000000000081526004016105f990612024565b60405180910390fd5b8160045f8673ffffffffffffffffffffffffffffffffffffffff1673ffffffffffffffffffffffffffffffffffffffff1681526020019081526020015f205f82825461064e919061206f565b9250508190555060015f9054906101000a900473ffffffffffffffffffffffffffffffffffffffff1673ffffffffffffffffffffffffffffffffffffffff16637f86285c8484846040518463ffffffff1660e01b81526004016106b3939291906120ec565b5f604051808303815f87803b1580156106ca575f5ffd5b505af11580156106dc573d5f5f3e3d5ffd5b50505050808373ffffffffffffffffffffffffffffffffffffffff168573ffffffffffffffffffffffffffffffffffffffff167f4eeb79557c53df34af2951cfe9b61432ed81e338ccf19f004f30b147cc21a7008560405161073e9190612134565b60405180910390a461074e611504565b50505050565b61075c61151e565b5f73ffffffffffffffffffffffffffffffffffffffff168173ffffffffffffffffffffffffffffffffffffffff16036107ca576040517f08c379a00000000000000000000000000000000000000000000000000000000081526004016107c1906121aa565b60405180910390fd5b5f60035f8373ffffffffffffffffffffffffffffffffffffffff1673ffffffffffffffffffffffffffffffffffffffff1681526020019081526020015f2090505f6301e1338090505f5f90505b82805490508110156109335781838281548110610837576108366121c8565b5b905f5260205f2090600402016001015442610852919061206f565b111561092657826001848054905061086a919061206f565b8154811061087b5761087a6121c8565b5b905f5260205f20906004020183828154811061089a576108996121c8565b5b905f5260205f2090600402015f820154815f01556001820154816001015560028201548160020155600382018160030190816108d6919061243c565b50905050828054806108eb576108ea612521565b5b600190038181905f5260205f2090600402015f5f82015f9055600182015f9055600282015f9055600382015f61092191906116fc565b505090555b8080600101915050610817565b50505050565b606060035f8373ffffffffffffffffffffffffffffffffffffffff1673ffffffffffffffffffffffffffffffffffffffff1681526020019081526020015f20805480602002602001604051908101604052809291908181526020015f905b82821015610a74578382905f5260205f2090600402016040518060800160405290815f820154815260200160018201548152602001600282015481526020016003820180546109e590612222565b80601f0160208091040260200160405190810160405280929190818152602001828054610a1190612222565b8015610a5c5780601f10610a3357610100808354040283529160200191610a5c565b820191905f5260205f20905b815481529060010190602001808311610a3f57829003601f168201915b50505050508152505081526020019060010190610997565b505050509050919050565b610a8761151e565b5f73ffffffffffffffffffffffffffffffffffffffff168173ffffffffffffffffffffffffffffffffffffffff1603610af5576040517f08c379a0000000000000000000000000000000000000000000000000000000008152600401610aec90612598565b60405180910390fd5b8060025f6101000a81548173ffffffffffffffffffffffffffffffffffffffff021916908373ffffffffffffffffffffffffffffffffffffffff1602179055508073ffffffffffffffffffffffffffffffffffffffff167fb9a1f6d01069d240a4bebe47b464192f46dc977bf49ec60b388e25e4db1a88af60405160405180910390a250565b60025f9054906101000a900473ffffffffffffffffffffffffffffffffffffffff1681565b610ba861151e565b610bb15f6115a5565b565b60015f9054906101000a900473ffffffffffffffffffffffffffffffffffffffff1681565b60025f9054906101000a900473ffffffffffffffffffffffffffffffffffffffff1673ffffffffffffffffffffffffffffffffffffffff163373ffffffffffffffffffffffffffffffffffffffff1614610c67576040517f08c379a0000000000000000000000000000000000000000000000000000000008152600401610c5e90611e84565b60405180910390fd5b610c6f6114e2565b5f73ffffffffffffffffffffffffffffffffffffffff168573ffffffffffffffffffffffffffffffffffffffff1603610cdd576040517f08c379a0000000000000000000000000000000000000000000000000000000008152600401610cd4906121aa565b60405180910390fd5b5f8411610d1f576040517f08c379a0000000000000000000000000000000000000000000000000000000008152600401610d1690611fbc565b60405180910390fd5b60015f9054906101000a900473ffffffffffffffffffffffffffffffffffffffff1673ffffffffffffffffffffffffffffffffffffffff1663baa3c7cf86866040518363ffffffff1660e01b8152600401610d7b9291906125b6565b5f604051808303815f87803b158015610d92575f5ffd5b505af1158015610da4573d5f5f3e3d5ffd5b5050505060035f8673ffffffffffffffffffffffffffffffffffffffff1673ffffffffffffffffffffffffffffffffffffffff1681526020019081526020015f20604051806080016040528086815260200142815260200185815260200184848080601f0160208091040260200160405190810160405280939291908181526020018383808284375f81840152601f19601f82011690508083019250505050505050815250908060018154018082558091505060019003905f5260205f2090600402015f909190919091505f820151815f015560208201518160010155604082015181600201556060820151816003019081610ea091906125dd565b5050508360045f8773ffffffffffffffffffffffffffffffffffffffff1673ffffffffffffffffffffffffffffffffffffffff1681526020019081526020015f205f828254610eef91906126ac565b9250508190555060055f8481526020019081526020015f2085908060018154018082558091505060019003905f5260205f20015f9091909190916101000a81548173ffffffffffffffffffffffffffffffffffffffff021916908373ffffffffffffffffffffffffffffffffffffffff160217905550828573ffffffffffffffffffffffffffffffffffffffff167f65a486d28d68531b734905e17e5ef7d6c0d01c0a44d998d4b7c36f8a65a0d973868585604051610fb093929190612719565b60405180910390a3610fc0611504565b5050505050565b5f5f5f9054906101000a900473ffffffffffffffffffffffffffffffffffffffff16905090565b6004602052805f5260405f205f915090505481565b60025f9054906101000a900473ffffffffffffffffffffffffffffffffffffffff1673ffffffffffffffffffffffffffffffffffffffff163373ffffffffffffffffffffffffffffffffffffffff1614611092576040517f08c379a000000000000000000000000000000000000000000000000000000000815260040161108990611e84565b60405180910390fd5b61109a6114e2565b5f73ffffffffffffffffffffffffffffffffffffffff168373ffffffffffffffffffffffffffffffffffffffff1603611108576040517f08c379a00000000000000000000000000000000000000000000000000000000081526004016110ff906121aa565b60405180910390fd5b5f821161114a576040517f08c379a000000000000000000000000000000000000000000000000000000000815260040161114190611fbc565b60405180910390fd5b8160045f8573ffffffffffffffffffffffffffffffffffffffff1673ffffffffffffffffffffffffffffffffffffffff1681526020019081526020015f205410156111ca576040517f08c379a00000000000000000000000000000000000000000000000000000000081526004016111c190612024565b60405180910390fd5b8160045f8573ffffffffffffffffffffffffffffffffffffffff1673ffffffffffffffffffffffffffffffffffffffff1681526020019081526020015f205f828254611216919061206f565b9250508190555060015f9054906101000a900473ffffffffffffffffffffffffffffffffffffffff1673ffffffffffffffffffffffffffffffffffffffff16637f86285c8484846040518463ffffffff1660e01b815260040161127b93929190612793565b5f604051808303815f87803b158015611292575f5ffd5b505af11580156112a4573d5f5f3e3d5ffd5b50505050808373ffffffffffffffffffffffffffffffffffffffff167f2d7add3a2f6d61d4e8e31646d4228d8a10dc7b2374e999996439018a928b3f72846040516112ef9190611cc3565b60405180910390a36112ff611504565b505050565b5f60045f8373ffffffffffffffffffffffffffffffffffffffff1673ffffffffffffffffffffffffffffffffffffffff1681526020019081526020015f20549050919050565b6003602052815f5260405f208181548110611363575f80fd5b905f5260205f2090600402015f9150915050805f01549080600101549080600201549080600301805461139590612222565b80601f01602080910402602001604051908101604052809291908181526020018280546113c190612222565b801561140c5780601f106113e35761010080835404028352916020019161140c565b820191905f5260205f20905b8154815290600101906020018083116113ef57829003601f168201915b5050505050905084565b61141e61151e565b5f73ffffffffffffffffffffffffffffffffffffffff168173ffffffffffffffffffffffffffffffffffffffff160361148e575f6040517f1e4fbdf70000000000000000000000000000000000000000000000000000000081526004016114859190611b42565b60405180910390fd5b611497816115a5565b50565b6005602052815f5260405f2081815481106114b3575f80fd5b905f5260205f20015f915091509054906101000a900473ffffffffffffffffffffffffffffffffffffffff1681565b6114ea611666565b60026114fc6114f76116a7565b6116d0565b5f0181905550565b60016115166115116116a7565b6116d0565b5f0181905550565b6115266116d9565b73ffffffffffffffffffffffffffffffffffffffff16611544610fc7565b73ffffffffffffffffffffffffffffffffffffffff16146115a3576115676116d9565b6040517f118cdaa700000000000000000000000000000000000000000000000000000000815260040161159a9190611b42565b60405180910390fd5b565b5f5f5f9054906101000a900473ffffffffffffffffffffffffffffffffffffffff169050815f5f6101000a81548173ffffffffffffffffffffffffffffffffffffffff021916908373ffffffffffffffffffffffffffffffffffffffff1602179055508173ffffffffffffffffffffffffffffffffffffffff168173ffffffffffffffffffffffffffffffffffffffff167f8be0079c531659141344cd1fd0a4f28419497f9722a3daafe3b4186f6b6457e060405160405180910390a35050565b61166e6116e0565b156116a5576040517f3ee5aeb500000000000000000000000000000000000000000000000000000000815260040160405180910390fd5b565b5f7f9b779b17422d0df92223018b32b4d1fa46e071723d6817e2486d003becc55f005f1b905090565b5f819050919050565b5f33905090565b5f60026116f36116ee6116a7565b6116d0565b5f015414905090565b50805461170890612222565b5f825580601f106117195750611733565b601f0160209004905f5260205f20906117329190611736565b5b50565b5f5b8082111561174e578281015f9055600101611738565b505090565b5f5ffd5b5f5ffd5b5f819050919050565b61176d8161175b565b8114611777575f5ffd5b50565b5f8135905061178881611764565b92915050565b5f602082840312156117a3576117a2611753565b5b5f6117b08482850161177a565b91505092915050565b5f81519050919050565b5f82825260208201905092915050565b5f819050602082019050919050565b5f73ffffffffffffffffffffffffffffffffffffffff82169050919050565b5f61180b826117e2565b9050919050565b61181b81611801565b82525050565b5f61182c8383611812565b60208301905092915050565b5f602082019050919050565b5f61184e826117b9565b61185881856117c3565b9350611863836117d3565b805f5b8381101561189357815161187a8882611821565b975061188583611838565b925050600181019050611866565b5085935050505092915050565b5f6020820190508181035f8301526118b88184611844565b905092915050565b6118c981611801565b81146118d3575f5ffd5b50565b5f813590506118e4816118c0565b92915050565b5f5f5f5f6080858703121561190257611901611753565b5b5f61190f878288016118d6565b9450506020611920878288016118d6565b93505060406119318782880161177a565b92505060606119428782880161177a565b91505092959194509250565b5f6020828403121561196357611962611753565b5b5f611970848285016118d6565b91505092915050565b5f81519050919050565b5f82825260208201905092915050565b5f819050602082019050919050565b6119ab8161175b565b82525050565b5f81519050919050565b5f82825260208201905092915050565b8281835e5f83830152505050565b5f601f19601f8301169050919050565b5f6119f3826119b1565b6119fd81856119bb565b9350611a0d8185602086016119cb565b611a16816119d9565b840191505092915050565b5f608083015f830151611a365f8601826119a2565b506020830151611a4960208601826119a2565b506040830151611a5c60408601826119a2565b5060608301518482036060860152611a7482826119e9565b9150508091505092915050565b5f611a8c8383611a21565b905092915050565b5f602082019050919050565b5f611aaa82611979565b611ab48185611983565b935083602082028501611ac685611993565b805f5b85811015611b015784840389528151611ae28582611a81565b9450611aed83611a94565b925060208a01995050600181019050611ac9565b50829750879550505050505092915050565b5f6020820190508181035f830152611b2b8184611aa0565b905092915050565b611b3c81611801565b82525050565b5f602082019050611b555f830184611b33565b92915050565b5f819050919050565b5f611b7e611b79611b74846117e2565b611b5b565b6117e2565b9050919050565b5f611b8f82611b64565b9050919050565b5f611ba082611b85565b9050919050565b611bb081611b96565b82525050565b5f602082019050611bc95f830184611ba7565b92915050565b5f5ffd5b5f5ffd5b5f5ffd5b5f5f83601f840112611bf057611bef611bcf565b5b8235905067ffffffffffffffff811115611c0d57611c0c611bd3565b5b602083019150836001820283011115611c2957611c28611bd7565b5b9250929050565b5f5f5f5f5f60808688031215611c4957611c48611753565b5b5f611c56888289016118d6565b9550506020611c678882890161177a565b9450506040611c788882890161177a565b935050606086013567ffffffffffffffff811115611c9957611c98611757565b5b611ca588828901611bdb565b92509250509295509295909350565b611cbd8161175b565b82525050565b5f602082019050611cd65f830184611cb4565b92915050565b5f5f5f60608486031215611cf357611cf2611753565b5b5f611d00868287016118d6565b9350506020611d118682870161177a565b9250506040611d228682870161177a565b9150509250925092565b5f5f60408385031215611d4257611d41611753565b5b5f611d4f858286016118d6565b9250506020611d608582860161177a565b9150509250929050565b5f82825260208201905092915050565b5f611d84826119b1565b611d8e8185611d6a565b9350611d9e8185602086016119cb565b611da7816119d9565b840191505092915050565b5f608082019050611dc55f830187611cb4565b611dd26020830186611cb4565b611ddf6040830185611cb4565b8181036060830152611df18184611d7a565b905095945050505050565b5f5f60408385031215611e1257611e11611753565b5b5f611e1f8582860161177a565b9250506020611e308582860161177a565b9150509250929050565b7f4f6e6c79204368616c6c656e6765466163746f727900000000000000000000005f82015250565b5f611e6e601583611d6a565b9150611e7982611e3a565b602082019050919050565b5f6020820190508181035f830152611e9b81611e62565b9050919050565b7f496e76616c6964206c6f736572000000000000000000000000000000000000005f82015250565b5f611ed6600d83611d6a565b9150611ee182611ea2565b602082019050919050565b5f6020820190508181035f830152611f0381611eca565b9050919050565b7f496e76616c69642077696e6e65720000000000000000000000000000000000005f82015250565b5f611f3e600e83611d6a565b9150611f4982611f0a565b602082019050919050565b5f6020820190508181035f830152611f6b81611f32565b9050919050565b7f416d6f756e74206d757374206265203e203000000000000000000000000000005f82015250565b5f611fa6601283611d6a565b9150611fb182611f72565b602082019050919050565b5f6020820190508181035f830152611fd381611f9a565b9050919050565b7f496e73756666696369656e74206c6f636b656420706f696e74730000000000005f82015250565b5f61200e601a83611d6a565b915061201982611fda565b602082019050919050565b5f6020820190508181035f83015261203b81612002565b9050919050565b7f4e487b71000000000000000000000000000000000000000000000000000000005f52601160045260245ffd5b5f6120798261175b565b91506120848361175b565b925082820390508181111561209c5761209b612042565b5b92915050565b7f6368616c6c656e67655f77696e6e696e677300000000000000000000000000005f82015250565b5f6120d6601283611d6a565b91506120e1826120a2565b602082019050919050565b5f6080820190506120ff5f830186611b33565b61210c6020830185611cb4565b6121196040830184611cb4565b818103606083015261212a816120ca565b9050949350505050565b5f6040820190506121475f830184611cb4565b8181036020830152612158816120ca565b905092915050565b7f496e76616c6964207573657200000000000000000000000000000000000000005f82015250565b5f612194600c83611d6a565b915061219f82612160565b602082019050919050565b5f6020820190508181035f8301526121c181612188565b9050919050565b7f4e487b71000000000000000000000000000000000000000000000000000000005f52603260045260245ffd5b7f4e487b71000000000000000000000000000000000000000000000000000000005f52602260045260245ffd5b5f600282049050600182168061223957607f821691505b60208210810361224c5761224b6121f5565b5b50919050565b5f8154905061226081612222565b9050919050565b7f4e487b71000000000000000000000000000000000000000000000000000000005f52604160045260245ffd5b5f819050815f5260205f209050919050565b5f6020601f8301049050919050565b5f82821b905092915050565b5f600883026122f07fffffffffffffffffffffffffffffffffffffffffffffffffffffffffffffffff826122b5565b6122fa86836122b5565b95508019841693508086168417925050509392505050565b5f61232c6123276123228461175b565b611b5b565b61175b565b9050919050565b5f819050919050565b61234583612312565b61235961235182612333565b8484546122c1565b825550505050565b5f5f905090565b612370612361565b61237b81848461233c565b505050565b5f5b828110156123a1576123965f828401612368565b600181019050612382565b505050565b601f8211156123f457828211156123f3576123c081612294565b6123c9836122a6565b6123d2856122a6565b60208610156123df575f90505b8083016123ee82840382612380565b505050505b5b505050565b5f82821c905092915050565b5f6124145f19846008026123f9565b1980831691505092915050565b5f61242c8383612405565b9150826002028217905092915050565b81810361244a57505061251f565b61245382612252565b67ffffffffffffffff81111561246c5761246b612267565b5b6124768254612222565b6124818282856123a6565b5f601f8311600181146124ae575f841561249c578287015490505b6124a68582612421565b865550612518565b601f1984166124bc87612294565b96506124c786612294565b5f5b828110156124ee578489015482556001820191506001850194506020810190506124c9565b8683101561250b5784890154612507601f891682612405565b8355505b6001600288020188555050505b5050505050505b565b7f4e487b71000000000000000000000000000000000000000000000000000000005f52603160045260245ffd5b7f496e76616c696420666163746f727900000000000000000000000000000000005f82015250565b5f612582600f83611d6a565b915061258d8261254e565b602082019050919050565b5f6020820190508181035f8301526125af81612576565b9050919050565b5f6040820190506125c95f830185611b33565b6125d66020830184611cb4565b9392505050565b6125e6826119b1565b67ffffffffffffffff8111156125ff576125fe612267565b5b6126098254612222565b6126148282856123a6565b5f60209050601f831160018114612645575f8415612633578287015190505b61263d8582612421565b8655506126a4565b601f19841661265386612294565b5f5b8281101561267a57848901518255600182019150602085019450602081019050612655565b868310156126975784890151612693601f891682612405565b8355505b6001600288020188555050505b505050505050565b5f6126b68261175b565b91506126c18361175b565b92508282019050808211156126d9576126d8612042565b5b92915050565b828183375f83830152505050565b5f6126f88385611d6a565b93506127058385846126df565b61270e836119d9565b840190509392505050565b5f60408201905061272c5f830186611cb4565b818103602083015261273f8184866126ed565b9050949350505050565b7f6c6f636b65645f706f696e74735f72656c6561736564000000000000000000005f82015250565b5f61277d601683611d6a565b915061278882612749565b602082019050919050565b5f6080820190506127a65f830186611b33565b6127b36020830185611cb4565b6127c06040830184611cb4565b81810360608301526127d181612771565b905094935050505056fea26469706673582212208881939ee2cdc43b4b43c7298f72f3e442cd8850433c42bc33f4fdfde426f0d664736f6c63430008210033","linkReferences":{}},"methodIdentifiers":{"challengeFactory()":"5dbaf68b","challengeParticipants(uint256,uint256)":"ffac1a95","clearExpiredLocks(address)":"3e041511","getChallengeParticipants(uint256)":"023bf958","getTotalLockedPoints(address)":"b1b414d6","getUserLockedPoints(address)":"54bba1a8","lockPoints(address,uint256,uint256,string)":"820a16fe","owner()":"8da5cb5b","pointsToken()":"72e1011c","releasePoints(address,uint256,uint256)":"92fc0b4b","renounceOwnership()":"715018a6","setChallengeFactory(address)":"5c3d9dec","totalLockedPoints(address)":"8e47dc22","transferLockedPoints(address,address,uint256,uint256)":"0c93a0a8","transferOwnership(address)":"f2fde38b","userLockedPoints(address,uint256)":"edda7bfd"},"id":42}