{"abi":[{"type":"constructor","inputs":[{"name":"_pointsToken","type":"address","internalType":"address"},{"name":"_admin","type":"address","internalType":"address"}],"stateMutability":"nonpayable"},{"type":"function","name":"acceptP2PChallenge","inputs":[{"name":"challengeId","type":"uint256","internalType":"uint256"}],"outputs":[],"stateMutability":"nonpayable"},{"type":"function","name":"admin","inputs":[],"outputs":[{"name":"","type":"address","internalType":"address"}],"stateMutability":"view"},{"type":"function","name":"adminParticipants","inputs":[{"name":"","type":"uint256","internalType":"uint256"},{"name":"","type":"address","internalType":"address"}],"outputs":[{"name":"user","type":"address","internalType":"address"},{"name":"side","type":"bool","internalType":"bool"},{"name":"stakeAmount","type":"uint256","internalType":"uint256"},{"name":"claimed","type":"bool","internalType":"bool"}],"stateMutability":"view"},{"type":"function","name":"challenges","inputs":[{"name":"","type":"uint256","internalType":"uint256"}],"outputs":[{"name":"id","type":"uint256","internalType":"uint256"},{"name":"challengeType","type":"uint8","internalType":"enum ChallengeFactory.ChallengeType"},{"name":"creator","type":"address","internalType":"address"},{"name":"participant","type":"address","internalType":"address"},{"name":"stakeAmount","type":"uint256","internalType":"uint256"},{"name":"paymentToken","type":"address","internalType":"address"},{"name":"status","type":"uint8","internalType":"enum ChallengeFactory.ChallengeStatus"},{"name":"winner","type":"address","internalType":"address"},{"name":"createdAt","type":"uint256","internalType":"uint256"},{"name":"resolvedAt","type":"uint256","internalType":"uint256"},{"name":"metadataURI","type":"string","internalType":"string"}],"stateMutability":"view"},{"type":"function","name":"claimPayout","inputs":[{"name":"challengeId","type":"uint256","internalType":"uint256"}],"outputs":[],"stateMutability":"nonpayable"},{"type":"function","name":"createAdminChallenge","inputs":[{"name":"stakeAmount","type":"uint256","internalType":"uint256"},{"name":"paymentToken","type":"address","internalType":"address"},{"name":"metadataURI","type":"string","internalType":"string"}],"outputs":[{"name":"","type":"uint256","internalType":"uint256"}],"stateMutability":"nonpayable"},{"type":"function","name":"createP2PChallenge","inputs":[{"name":"opponent","type":"address","internalType":"address"},{"name":"stakeAmount","type":"uint256","internalType":"uint256"},{"name":"paymentToken","type":"address","internalType":"address"},{"name":"metadataURI","type":"string","internalType":"string"}],"outputs":[{"name":"","type":"uint256","internalType":"uint256"}],"stateMutability":"nonpayable"},{"type":"function","name":"getChallenge","inputs":[{"name":"challengeId","type":"uint256","internalType":"uint256"}],"outputs":[{"name":"","type":"tuple","internalType":"struct ChallengeFactory.Challenge","components":[{"name":"id","type":"uint256","internalType":"uint256"},{"name":"challengeType","type":"uint8","internalType":"enum ChallengeFactory.ChallengeType"},{"name":"creator","type":"address","internalType":"address"},{"name":"participant","type":"address","internalType":"address"},{"name":"stakeAmount","type":"uint256","internalType":"uint256"},{"name":"paymentToken","type":"address","internalType":"address"},{"name":"status","type":"uint8","internalType":"enum ChallengeFactory.ChallengeStatus"},{"name":"winner","type":"address","internalType":"address"},{"name":"createdAt","type":"uint256","internalType":"uint256"},{"name":"resolvedAt","type":"uint256","internalType":"uint256"},{"name":"metadataURI","type":"string","internalType":"string"}]}],"stateMutability":"view"},{"type":"function","name":"getNoParticipants","inputs":[{"name":"challengeId","type":"uint256","internalType":"uint256"}],"outputs":[{"name":"","type":"address[]","internalType":"address[]"}],"stateMutability":"view"},{"type":"function","name":"getUserLockedStakes","inputs":[{"name":"user","type":"address","internalType":"address"}],"outputs":[{"name":"","type":"uint256","internalType":"uint256"}],"stateMutability":"view"},{"type":"function","name":"getYesParticipants","inputs":[{"name":"challengeId","type":"uint256","internalType":"uint256"}],"outputs":[{"name":"","type":"address[]","internalType":"address[]"}],"stateMutability":"view"},{"type":"function","name":"joinAdminChallenge","inputs":[{"name":"challengeId","type":"uint256","internalType":"uint256"},{"name":"side","type":"bool","internalType":"bool"}],"outputs":[],"stateMutability":"nonpayable"},{"type":"function","name":"nextChallengeId","inputs":[],"outputs":[{"name":"","type":"uint256","internalType":"uint256"}],"stateMutability":"view"},{"type":"function","name":"noParticipants","inputs":[{"name":"","type":"uint256","internalType":"uint256"},{"name":"","type":"uint256","internalType":"uint256"}],"outputs":[{"name":"","type":"address","internalType":"address"}],"stateMutability":"view"},{"type":"function","name":"owner","inputs":[],"outputs":[{"name":"","type":"address","internalType":"address"}],"stateMutability":"view"},{"type":"function","name":"platformFeePercentage","inputs":[],"outputs":[{"name":"","type":"uint256","internalType":"uint256"}],"stateMutability":"view"},{"type":"function","name":"pointsToken","inputs":[],"outputs":[{"name":"","type":"address","internalType":"contract BantahPoints"}],"stateMutability":"view"},{"type":"function","name":"renounceOwnership","inputs":[],"outputs":[],"stateMutability":"nonpayable"},{"type":"function","name":"resolveChallenge","inputs":[{"name":"challengeId","type":"uint256","internalType":"uint256"},{"name":"winner","type":"address","internalType":"address"},{"name":"pointsAwarded","type":"uint256","internalType":"uint256"},{"name":"signature","type":"bytes","internalType":"bytes"}],"outputs":[],"stateMutability":"nonpayable"},{"type":"function","name":"setAdmin","inputs":[{"name":"newAdmin","type":"address","internalType":"address"}],"outputs":[],"stateMutability":"nonpayable"},{"type":"function","name":"setPlatformFee","inputs":[{"name":"basisPoints","type":"uint256","internalType":"uint256"}],"outputs":[],"stateMutability":"nonpayable"},{"type":"function","name":"totalFeesCollected","inputs":[],"outputs":[{"name":"","type":"uint256","internalType":"uint256"}],"stateMutability":"view"},{"type":"function","name":"transferOwnership","inputs":[{"name":"newOwner","type":"address","internalType":"address"}],"outputs":[],"stateMutability":"nonpayable"},{"type":"function","name":"userLockedStakes","inputs":[{"name":"","type":"address","internalType":"address"}],"outputs":[{"name":"","type":"uint256","internalType":"uint256"}],"stateMutability":"view"},{"type":"function","name":"withdrawFees","inputs":[{"name":"token","type":"address","internalType":"address"}],"outputs":[],"stateMutability":"nonpayable"},{"type":"function","name":"yesParticipants","inputs":[{"name":"","type":"uint256","internalType":"uint256"},{"name":"","type":"uint256","internalType":"uint256"}],"outputs":[{"name":"","type":"address","internalType":"address"}],"stateMutability":"view"},{"type":"event","name":"AdminUpdated","inputs":[{"name":"newAdmin","type":"address","indexed":true,"internalType":"address"}],"anonymous":false},{"type":"event","name":"ChallengeAccepted","inputs":[{"name":"challengeId","type":"uint256","indexed":true,"internalType":"uint256"},{"name":"participant","type":"address","indexed":true,"internalType":"address"}],"anonymous":false},{"type":"event","name":"ChallengeCreated","inputs":[{"name":"challengeId","type":"uint256","indexed":true,"internalType":"uint256"},{"name":"challengeType","type":"uint8","indexed":false,"internalType":"enum ChallengeFactory.ChallengeType"},{"name":"creator","type":"address","indexed":true,"internalType":"address"},{"name":"stakeAmount","type":"uint256","indexed":false,"internalType":"uint256"},{"name":"paymentToken","type":"address","indexed":false,"internalType":"address"},{"name":"metadataURI","type":"string","indexed":false,"internalType":"string"}],"anonymous":false},{"type":"event","name":"ChallengeResolved","inputs":[{"name":"challengeId","type":"uint256","indexed":true,"internalType":"uint256"},{"name":"winner","type":"address","indexed":true,"internalType":"address"},{"name":"prizeAmount","type":"uint256","indexed":false,"internalType":"uint256"},{"name":"pointsAwarded","type":"uint256","indexed":false,"internalType":"uint256"}],"anonymous":false},{"type":"event","name":"OwnershipTransferred","inputs":[{"name":"previousOwner","type":"address","indexed":true,"internalType":"address"},{"name":"newOwner","type":"address","indexed":true,"internalType":"address"}],"anonymous":false},{"type":"event","name":"PayoutClaimed","inputs":[{"name":"challengeId","type":"uint256","indexed":true,"internalType":"uint256"},{"name":"user","type":"address","indexed":true,"internalType":"address"},{"name":"amount","type":"uint256","indexed":false,"internalType":"uint256"}],"anonymous":false},{"type":"event","name":"UserJoinedAdminChallenge","inputs":[{"name":"challengeId","type":"uint256","indexed":true,"internalType":"uint256"},{"name":"user","type":"address","indexed":true,"internalType":"address"},{"name":"side","type":"bool","indexed":false,"internalType":"bool"},{"name":"stakeAmount","type":"uint256","indexed":false,"internalType":"uint256"}],"anonymous":false},{"type":"error","name":"ECDSAInvalidSignature","inputs":[]},{"type":"error","name":"ECDSAInvalidSignatureLength","inputs":[{"name":"length","type":"uint256","internalType":"uint256"}]},{"type":"error","name":"ECDSAInvalidSignatureS","inputs":[{"name":"s","type":"bytes32","internalType":"bytes32"}]},{"type":"error","name":"OwnableInvalidOwner","inputs":[{"name":"owner","type":"address","internalType":"address"}]},{"type":"error","name":"OwnableUnauthorizedAccount","inputs":[{"name":"account","type":"address","internalType":"address"}]},{"type":"error","name":"ReentrancyGuardReentrantCall","inputs":[]}],"bytecode":{"object":"0x6080346101a857601f6123df38819003918201601f19168301916001600160401b038311848410176101ac5780849260409485528339810103126101a857610052602061004b836101c0565b92016101c0565b60017f9b779b17422d0df92223018b32b4d1fa46e071723d6817e2486d003becc55f00553315610195575f8054336001600160a01b0319821681178355604051949290916001600160a01b0316907f8be0079c531659141344cd1fd0a4f28419497f9722a3daafe3b4186f6b6457e09080a3600160038190556009556001600160a01b031691821561015357506001600160a01b031690811561011e5760018060a01b0319600154161760015560018060a01b0319600254161760025560405161220a90816101d58239f35b60405162461bcd60e51b815260206004820152600d60248201526c24b73b30b634b21030b236b4b760991b6044820152606490fd5b62461bcd60e51b815260206004820152601460248201527f496e76616c696420706f696e747320746f6b656e0000000000000000000000006044820152606490fd5b631e4fbdf760e01b5f525f60045260245ffd5b5f80fd5b634e487b7160e01b5f52604160045260245ffd5b51906001600160a01b03821682036101a85756fe60806040526004361015610011575f80fd5b5f5f3560e01c806312e8e2c314611bbd578063164e68de14611a825780631bdd4b74146118ba5780634b0a11101461147757806360c6d8ae1461145a57806360d899cc146113e4578063704b6c0214611347578063715018a6146112f057806372e1011c146112c85780637ba6a3241461104657806387a0a4ef14610fd95780638a69614e14610d505780638bf6564b146109e75780638da5cb5b146109c05780638f1d3776146108df5780639598c130146107fb578063a3643c9c14610862578063acdc9ada14610833578063aecc1437146107fb578063b9c2211314610464578063cdd78cfc14610446578063d35202e814610252578063f272f67414610207578063f2fde38b14610181578063f851a440146101585763fc67aa5014610138575f80fd5b346101555780600319360112610155576020600354604051908152f35b80fd5b50346101555780600319360112610155576002546040516001600160a01b039091168152602090f35b50346101555760203660031901126101555761019b611c1a565b6101a361203a565b6001600160a01b031680156101f35781546001600160a01b03198116821783556001600160a01b03167f8be0079c531659141344cd1fd0a4f28419497f9722a3daafe3b4186f6b6457e08380a380f35b631e4fbdf760e01b82526004829052602482fd5b50346101555761021636611e41565b919081526006602052604081209081548310156101555760206102398484611e57565b905460405160039290921b1c6001600160a01b03168152f35b50346101555760203660031901126101555760043561026f612060565b8082526004602052604082206004810180549160ff8360a01c1660058110156103fa5761029c9015611f97565b60028101546001600160a01b0316330361040e5760ff60018201541660028110156103fa576001036103bf5760030180546040516323b872dd60e01b8152336004820152306024820152604481019190915290926020908290606490829089906001600160a01b03165af180156103b45761031e918691610385575b50611f14565b805460ff60a01b1916600160a01b179055543383526008602052604083208054909161034991611f8a565b905533907fd984ac8050a068db0ada14b33626b418e0cdfbad700867c1f3e0ab23cf123b338380a360015f5160206121b55f395f51905f525580f35b6103a7915060203d6020116103ad575b61039f8183611ca1565b810190611e80565b5f610318565b503d610395565b6040513d87823e3d90fd5b60405162461bcd60e51b81526020600482015260136024820152724e6f74206120503250206368616c6c656e676560681b6044820152606490fd5b634e487b7160e01b86526021600452602486fd5b60405162461bcd60e51b815260206004820152601060248201526f2737ba103a34329030b1b1b2b83a37b960811b6044820152606490fd5b50346101555780600319360112610155576020600954604051908152f35b503461071457608036600319011261071457600435610481611c30565b9060443560643567ffffffffffffffff81116107145736602382011215610714576104b6903690602481600401359101611cc3565b6104be612060565b825f52600460205260405f2090600482019060ff825460a01c166005811015610763578060016104f792149081156107f2575b50611f97565b6001600160a01b0386169586156107bc576105839161057a9160405160208101918983526bffffffffffffffffffffffff199060601b16604082015287605482015260548152610548607482611ca1565b5190207f19457468657265756d205369676e6564204d6573736167653a0a3332000000005f52601c52603c5f20612098565b909291926120d2565b6002546001600160a01b0390811691160361077757805460ff60a01b1916600160a11b1790556005810180546001600160a01b03191685179055426007820155600181015460ff1660028110156107635760010361072c57600301548060011b908082046002149015171561071857905b61061a6106116103e86106096009548661201a565b04809461202d565b92600a54611f8a565b600a556001546001600160a01b0316803b15610714575f809160c460405180948193631fe18a1760e21b83528a600484015287602484015289604484015260806064840152600d60848401526c31b430b63632b733b2afbbb4b760991b60a48401525af18015610709576106ce575b507f48d04219f73523e45f2ef87f1dfb115fdec44d443c1406e0a7f9bba9b73ac80a9160409182519182526020820152a360015f5160206121b55f395f51905f525580f35b6040919550916106ff5f7f48d04219f73523e45f2ef87f1dfb115fdec44d443c1406e0a7f9bba9b73ac80a94611ca1565b5f95915091610689565b6040513d5f823e3d90fd5b5f80fd5b634e487b7160e01b5f52601160045260245ffd5b600361075d910154835f52600660205261075760405f2054855f52600760205260405f205490611f8a565b9061201a565b906105f4565b634e487b7160e01b5f52602160045260245ffd5b60405162461bcd60e51b815260206004820152601760248201527f496e76616c69642061646d696e207369676e61747572650000000000000000006044820152606490fd5b60405162461bcd60e51b815260206004820152600e60248201526d24b73b30b634b2103bb4b73732b960911b6044820152606490fd5b9050155f6104f1565b34610714576020366003190112610714576001600160a01b0361081c611c1a565b165f526008602052602060405f2054604051908152f35b346107145761084136611e41565b905f52600760205260405f2080548210156107145760209161023991611e57565b34610714576020366003190112610714576004355f52600760205260405f206040519081602082549182815201915f5260205f20905f5b8181106108c0576108bc856108b081870382611ca1565b60405191829182611d27565b0390f35b82546001600160a01b0316845260209093019260019283019201610899565b34610714576020366003190112610714576004355f52600460205260405f2080546108bc60018301549260018060a01b03600282015416906003810154600482015461099b60018060a01b0360058501541691600685015493610949600860078801549701611da1565b966040519a8b9a8b5261096260208c0160ff8316611c46565b60018060a01b039060081c1660408b015260608a0152608089015260018060a01b03811660a089015260ff60c089019160a01c16611c53565b60e0860152610100850152610120840152610160610140840152610160830190611c60565b34610714575f366003190112610714575f546040516001600160a01b039091168152602090f35b3461071457606036600319011261071457600435610a03611c30565b60443567ffffffffffffffff811161071457610a23903690600401611d09565b90610a2c61203a565b610a37831515611e98565b6001600160a01b0316610a4b811515611ed8565b815115610d185760035491610a5f83611f58565b600355604051610a6e81611c84565b838152602081015f8152604082019133835260608101915f8352608082019288845260a083019387855260c084015f815260e08501915f83526101008601934285526101208701955f87526101408801998b8b528d5f52600460205260405f20985189556001890191519060028210156107635782549051610100600160a81b0360089190911b1660ff929092166001600160a81b031990911617179055516002870180546001600160a01b039283166001600160a01b0319918216179091559151600388015596516004870180549190981691161786555194600586101561076357600895610b5d91611f66565b516005840180546001600160a01b0319166001600160a01b039290921691909117905551600683015551600782015591518051919092019167ffffffffffffffff8211610d04578190610bb08454611d69565b601f8111610cab575b50602090601f8311600114610c48575f92610c3d575b50508160011b915f199060031b1c19161790555b60405191610c2e84927f54542980a84be9b3d5fa2be13aae3b78757b6ddf78c50ee9252cf07fbc9be8d2926020975f8752888701526040860152608060608601526080850190611c60565b928033940390a3604051908152f35b015190508780610bcf565b5f8581528281209350601f198516905b818110610c935750908460019594939210610c7b575b505050811b019055610be3565b01515f1960f88460031b161c19169055878080610c6e565b92936020600181928786015181550195019301610c58565b82811115610bb957909150835f5260205f20601f840160051c9060208510610cfc575b849392601f0160051c82900391015f5b828110610cec575050610bb9565b5f81830155859450600101610cde565b5f9150610cce565b634e487b7160e01b5f52604160045260245ffd5b60405162461bcd60e51b815260206004820152601060248201526f496e76616c6964206d6574616461746160801b6044820152606490fd5b3461071457602036600319011261071457600435610d6c612060565b805f52600460205260405f2090600482019160ff835460a01c16600581101561076357600203610f9b5760058101546001600160a01b03163303610f655760ff600182015416600281101561076357600103610f3257600301548060011b908082046002149015171561071857610df4905b6103e8610ded6009548361201a565b049061202d565b825460ff60a01b1916600360a01b178355335f90815260086020526040902054909290831015610f2c57335f526008602052610e348360405f205461202d565b335f818152600860209081526040808320949094559354925163a9059cbb60e01b815260048101929092526024820186905290929183916044918391906001600160a01b03165af1908115610709575f91610f0d575b5015610ecf576040519182527fe97cee5a4c0549d3fdc81e322b718ddf0aeb3418ec87dce4f9a7fb28d117c31260203393a360015f5160206121b55f395f51905f5255005b60405162461bcd60e51b815260206004820152601660248201527514185e5bdd5d081d1c985b9cd9995c8819985a5b195960521b6044820152606490fd5b610f26915060203d6020116103ad5761039f8183611ca1565b83610e8a565b5f610e34565b610f606003610df4920154835f52600660205261075760405f2054855f52600760205260405f205490611f8a565b610dde565b60405162461bcd60e51b815260206004820152600e60248201526d2737ba103a3432903bb4b73732b960911b6044820152606490fd5b60405162461bcd60e51b815260206004820152601660248201527510da185b1b195b99d9481b9bdd081c995cdbdb1d995960521b6044820152606490fd5b34610714576020366003190112610714576004355f52600660205260405f206040519081602082549182815201915f5260205f20905f5b818110611027576108bc856108b081870382611ca1565b82546001600160a01b0316845260209093019260019283019201611010565b3461071457604036600319011261071457600435602435908115159182810361071457611071612060565b815f52600460205260405f2090600482019081549260ff8460a01c16600581101561076357806110a991159081156112bd5750611f97565b60ff60018201541660028110156107635761127f5760030180546040516323b872dd60e01b815233600482015230602482015260448101919091529093602090829060649082905f906001600160a01b03165af1801561070957611113915f916112605750611f14565b8254604051608081019080821067ffffffffffffffff831117610d045760409182523380825260208083018a81528385019586525f606085018181528b825260058452868220948252939092529390209151825493516001600160a81b03199094166001600160a01b03919091161792151560a01b60ff60a01b169290921781559151600183015551600291909101805491151560ff1660ff19929092169190911790551561124657825f5260066020526111d13360405f20611fd4565b805460ff60a01b1916600160a01b1790558054335f908152600860205260409020805490916111ff91611f8a565b90555460405192835260208301527f7d9cd5d8664925284f55fc2d718b09ce8a6b6415d81ed3d99fa6ff7fa0aaeecb60403393a360015f5160206121b55f395f51905f5255005b825f52600760205261125b3360405f20611fd4565b6111d1565b611279915060203d6020116103ad5761039f8183611ca1565b87610318565b60405162461bcd60e51b81526020600482015260166024820152754e6f7420616e2061646d696e206368616c6c656e676560501b6044820152606490fd5b6001915014886104f1565b34610714575f366003190112610714576001546040516001600160a01b039091168152602090f35b34610714575f3660031901126107145761130861203a565b5f80546001600160a01b0319811682556001600160a01b03167f8be0079c531659141344cd1fd0a4f28419497f9722a3daafe3b4186f6b6457e08280a3005b3461071457602036600319011261071457611360611c1a565b61136861203a565b6001600160a01b031680156113af57600280546001600160a01b031916821790557f54e4612788f90384e6843298d7854436f3a585b2c3831ab66abf1de63bfa6c2d5f80a2005b60405162461bcd60e51b815260206004820152600d60248201526c24b73b30b634b21030b236b4b760991b6044820152606490fd5b34610714576040366003190112610714576113fd611c30565b6004355f52600560205260405f209060018060a01b03165f52602052608060405f2080549060ff60026001830154920154169060ff6040519360018060a01b038116855260a01c1615156020840152604083015215156060820152f35b34610714575f366003190112610714576020600a54604051908152f35b3461071457608036600319011261071457611490611c1a565b602435906044356001600160a01b038116908190036107145760643567ffffffffffffffff8111610714576114c9903690600401611d09565b916114d2612060565b6001600160a01b03169182156118825733831461183d576114f4841515611e98565b6114ff821515611ed8565b6040516323b872dd60e01b8152336004820152306024820152604481018590526020816064815f875af180156107095761153f915f9161181e5750611f14565b6003549261154c84611f58565b6003556040519061155c82611c84565b848252602082019160018352604081019233845260608201928352608082019288845260a083019387855260c084015f815260e08501915f83526101008601934285526101208701955f87526101408801998b8b528d5f52600460205260405f20985189556001890191519060028210156107635782549051610100600160a81b0360089190911b1660ff929092166001600160a81b031990911617179055516002870180546001600160a01b039283166001600160a01b031991821617909155915160038801559651600487018054919098169116178655519460058610156107635760089561164c91611f66565b516005840180546001600160a01b0319166001600160a01b039290921691909117905551600683015551600782015591518051919092019167ffffffffffffffff8211610d0457819061169f8454611d69565b601f81116117c5575b50602090601f8311600114611762575f92611757575b50508160011b915f199060031b1c19161790555b335f52600860205260405f206116e9858254611f8a565b90556040519161173784927f54542980a84be9b3d5fa2be13aae3b78757b6ddf78c50ee9252cf07fbc9be8d29260209760018752888701526040860152608060608601526080850190611c60565b928033940390a360015f5160206121b55f395f51905f5255604051908152f35b0151905087806116be565b5f8581528281209350601f198516905b8181106117ad5750908460019594939210611795575b505050811b0190556116d2565b01515f1960f88460031b161c19169055878080611788565b92936020600181928786015181550195019301611772565b828111156116a857909150835f5260205f20601f840160051c9060208510611816575b849392601f0160051c82900391015f5b8281106118065750506116a8565b5f818301558594506001016117f8565b5f91506117e8565b611837915060203d6020116103ad5761039f8183611ca1565b86610318565b60405162461bcd60e51b815260206004820152601960248201527f43616e6e6f74206368616c6c656e676520796f757273656c66000000000000006044820152606490fd5b60405162461bcd60e51b815260206004820152601060248201526f125b9d985b1a59081bdc1c1bdb995b9d60821b6044820152606490fd5b346107145760203660031901126107145760606101406040516118dc81611c84565b5f81525f60208201525f60408201525f838201525f60808201525f60a08201525f60c08201525f60e08201525f6101008201525f61012082015201526004355f52600460205260405f2060405161193281611c84565b81548152600182015491602082019160ff84166002811015610763578352604081019360018060a01b039060081c16845260018060a01b03600283015416606082019081526003830154926080830193845260048101549560ff60a085019760018060a01b038116895260a01c1660c085016005821015610763576040986108bc978796611a5194845260018060a01b036005880154169560e08901968752611a1d6119fa600860068b01549a6101008d019b8c5261012060078201549d019c8d5201611da1565b9a61014081019b8c528e519e8f9e8f926020845251602084015251910190611c46565b516001600160a01b0390811660608d01529051811660808c0152905160a08b015290511660c08901525160e0880190611c53565b516001600160a01b031661010086015251610120850152516101408401525161016080840152610180830190611c60565b3461071457602036600319011261071457611a9b611c1a565b611aa361203a565b611aab612060565b6040516370a0823160e01b8152306004820152906001600160a01b0316602082602481845afa918215610709575f92611b89575b508115611b4e5760405163a9059cbb60e01b81523360048201526024810192909252602090829060449082905f905af1801561070957611b31575b5f600a5560015f5160206121b55f395f51905f5255005b611b499060203d6020116103ad5761039f8183611ca1565b611b1a565b60405162461bcd60e51b81526020600482015260136024820152724e6f206665657320746f20776974686472617760681b6044820152606490fd5b9091506020813d602011611bb5575b81611ba560209383611ca1565b8101031261071457519082611adf565b3d9150611b98565b3461071457602036600319011261071457600435611bd961203a565b60328111611be657600955005b60405162461bcd60e51b815260206004820152600c60248201526b08ccaca40e8dede40d0d2ced60a31b6044820152606490fd5b600435906001600160a01b038216820361071457565b602435906001600160a01b038216820361071457565b9060028210156107635752565b9060058210156107635752565b805180835260209291819084018484015e5f828201840152601f01601f1916010190565b610160810190811067ffffffffffffffff821117610d0457604052565b90601f8019910116810190811067ffffffffffffffff821117610d0457604052565b92919267ffffffffffffffff8211610d045760405191611ced601f8201601f191660200184611ca1565b829481845281830111610714578281602093845f960137010152565b9080601f8301121561071457816020611d2493359101611cc3565b90565b60206040818301928281528451809452019201905f5b818110611d4a5750505090565b82516001600160a01b0316845260209384019390920191600101611d3d565b90600182811c92168015611d97575b6020831014611d8357565b634e487b7160e01b5f52602260045260245ffd5b91607f1691611d78565b9060405191825f825492611db484611d69565b8084529360018116908115611e1f5750600114611ddb575b50611dd992500383611ca1565b565b90505f9291925260205f20905f915b818310611e03575050906020611dd9928201015f611dcc565b6020919350806001915483858901015201910190918492611dea565b905060209250611dd994915060ff191682840152151560051b8201015f611dcc565b6040906003190112610714576004359060243590565b8054821015611e6c575f5260205f2001905f90565b634e487b7160e01b5f52603260045260245ffd5b90816020910312610714575180151581036107145790565b15611e9f57565b60405162461bcd60e51b815260206004820152601160248201527005374616b65206d757374206265203e203607c1b6044820152606490fd5b15611edf57565b60405162461bcd60e51b815260206004820152600d60248201526c24b73b30b634b2103a37b5b2b760991b6044820152606490fd5b15611f1b57565b60405162461bcd60e51b815260206004820152601560248201527414dd185ad9481d1c985b9cd9995c8819985a5b1959605a1b6044820152606490fd5b5f1981146107185760010190565b90600581101561076357815460ff60a01b191660a09190911b60ff60a01b16179055565b9190820180921161071857565b15611f9e57565b60405162461bcd60e51b815260206004820152600e60248201526d496e76616c69642073746174757360901b6044820152606490fd5b805468010000000000000000811015610d0457611ff691600182018155611e57565b81546001600160a01b0393841660039290921b91821b9390911b1916919091179055565b8181029291811591840414171561071857565b9190820391821161071857565b5f546001600160a01b0316330361204d57565b63118cdaa760e01b5f523360045260245ffd5b60025f5160206121b55f395f51905f5254146120895760025f5160206121b55f395f51905f5255565b633ee5aeb560e01b5f5260045ffd5b81519190604183036120c8576120c19250602082015190606060408401519301515f1a90612132565b9192909190565b50505f9160029190565b600481101561076357806120e4575050565b600181036120fb5763f645eedf60e01b5f5260045ffd5b60028103612116575063fce698f760e01b5f5260045260245ffd5b6003146121205750565b6335e2f38360e21b5f5260045260245ffd5b91907f7fffffffffffffffffffffffffffffff5d576e7357a4501ddfe92f46681b20a084116121a9579160209360809260ff5f9560405194855216868401526040830152606082015282805260015afa15610709575f516001600160a01b0381161561219f57905f905f90565b505f906001905f90565b5050505f916003919056fe9b779b17422d0df92223018b32b4d1fa46e071723d6817e2486d003becc55f00a264697066735822122057d155d0a3e0f90657ff271d6c5391f59e1aba05386c9c54b94dca790f35cedf64736f6c63430008210033","linkReferences":{}},"methodIdentifiers":{"acceptP2PChallenge(uint256)":"d35202e8","admin()":"f851a440","adminParticipants(uint256,address)":"60d899cc","challenges(uint256)":"8f1d3776","claimPayout(uint256)":"8a69614e","createAdminChallenge(uint256,address,string)":"8bf6564b","createP2PChallenge(address,uint256,address,string)":"4b0a1110","getChallenge(uint256)":"1bdd4b74","getNoParticipants(uint256)":"a3643c9c","getUserLockedStakes(address)":"aecc1437","getYesParticipants(uint256)":"87a0a4ef","joinAdminChallenge(uint256,bool)":"7ba6a324","nextChallengeId()":"fc67aa50","noParticipants(uint256,uint256)":"acdc9ada","owner()":"8da5cb5b","platformFeePercentage()":"cdd78cfc","pointsToken()":"72e1011c","renounceOwnership()":"715018a6","resolveChallenge(uint256,address,uint256,bytes)":"b9c22113","setAdmin(address)":"704b6c02","setPlatformFee(uint256)":"12e8e2c3","totalFeesCollected()":"60c6d8ae","transferOwnership(address)":"f2fde38b","userLockedStakes(address)":"9598c130","withdrawFees(address)":"164e68de","yesParticipants(uint256,uint256)":"f272f674"},"id":45}