{"abi":[{"type":"constructor","inputs":[{"name":"_pointsToken","type":"address","internalType":"address"},{"name":"_stakeEscrow","type":"address","internalType":"address"},{"name":"_admin","type":"address","internalType":"address"},{"name":"_platformFeeRecipient","type":"address","internalType":"address"}],"stateMutability":"nonpayable"},{"type":"function","name":"acceptP2PChallenge","inputs":[{"name":"challengeId","type":"uint256","internalType":"uint256"}],"outputs":[],"stateMutability":"nonpayable"},{"type":"function","name":"admin","inputs":[],"outputs":[{"name":"","type":"address","internalType":"address"}],"stateMutability":"view"},{"type":"function","name":"blacklistToken","inputs":[{"name":"token","type":"address","internalType":"address"},{"name":"blacklisted","type":"bool","internalType":"bool"}],"outputs":[],"stateMutability":"nonpayable"},{"type":"function","name":"blacklistedTokens","inputs":[{"name":"","type":"address","internalType":"address"}],"outputs":[{"name":"","type":"bool","internalType":"bool"}],"stateMutability":"view"},{"type":"function","name":"challenges","inputs":[{"name":"","type":"uint256","internalType":"uint256"}],"outputs":[{"name":"id","type":"uint256","internalType":"uint256"},{"name":"challengeType","type":"uint8","internalType":"enum ChallengeFactory.ChallengeType"},{"name":"creator","type":"address","internalType":"address"},{"name":"participant","type":"address","internalType":"address"},{"name":"paymentToken","type":"address","internalType":"address"},{"name":"stakeAmount","type":"uint256","internalType":"uint256"},{"name":"pointsReward","type":"uint256","internalType":"uint256"},{"name":"status","type":"uint8","internalType":"enum ChallengeFactory.ChallengeStatus"},{"name":"winner","type":"address","internalType":"address"},{"name":"createdAt","type":"uint256","internalType":"uint256"},{"name":"resolvedAt","type":"uint256","internalType":"uint256"},{"name":"metadataURI","type":"string","internalType":"string"}],"stateMutability":"view"},{"type":"function","name":"claimStake","inputs":[{"name":"challengeId","type":"uint256","internalType":"uint256"}],"outputs":[],"stateMutability":"nonpayable"},{"type":"function","name":"createGroupChallenge","inputs":[{"name":"paymentToken","type":"address","internalType":"address"},{"name":"stakeAmount","type":"uint256","internalType":"uint256"},{"name":"pointsReward","type":"uint256","internalType":"uint256"},{"name":"metadataURI","type":"string","internalType":"string"}],"outputs":[{"name":"","type":"uint256","internalType":"uint256"}],"stateMutability":"nonpayable"},{"type":"function","name":"createP2PChallenge","inputs":[{"name":"participant","type":"address","internalType":"address"},{"name":"paymentToken","type":"address","internalType":"address"},{"name":"stakeAmount","type":"uint256","internalType":"uint256"},{"name":"pointsReward","type":"uint256","internalType":"uint256"},{"name":"metadataURI","type":"string","internalType":"string"}],"outputs":[{"name":"","type":"uint256","internalType":"uint256"}],"stateMutability":"nonpayable"},{"type":"function","name":"getChallenge","inputs":[{"name":"challengeId","type":"uint256","internalType":"uint256"}],"outputs":[{"name":"","type":"tuple","internalType":"struct ChallengeFactory.Challenge","components":[{"name":"id","type":"uint256","internalType":"uint256"},{"name":"challengeType","type":"uint8","internalType":"enum ChallengeFactory.ChallengeType"},{"name":"creator","type":"address","internalType":"address"},{"name":"participant","type":"address","internalType":"address"},{"name":"paymentToken","type":"address","internalType":"address"},{"name":"stakeAmount","type":"uint256","internalType":"uint256"},{"name":"pointsReward","type":"uint256","internalType":"uint256"},{"name":"status","type":"uint8","internalType":"enum ChallengeFactory.ChallengeStatus"},{"name":"winner","type":"address","internalType":"address"},{"name":"createdAt","type":"uint256","internalType":"uint256"},{"name":"resolvedAt","type":"uint256","internalType":"uint256"},{"name":"metadataURI","type":"string","internalType":"string"}]}],"stateMutability":"view"},{"type":"function","name":"getPlatformFeeBalance","inputs":[{"name":"token","type":"address","internalType":"address"}],"outputs":[{"name":"","type":"uint256","internalType":"uint256"}],"stateMutability":"view"},{"type":"function","name":"groupChallengeParticipants","inputs":[{"name":"","type":"uint256","internalType":"uint256"},{"name":"","type":"uint256","internalType":"uint256"}],"outputs":[{"name":"user","type":"address","internalType":"address"},{"name":"side","type":"bool","internalType":"bool"},{"name":"stakeAmount","type":"uint256","internalType":"uint256"},{"name":"claimed","type":"bool","internalType":"bool"}],"stateMutability":"view"},{"type":"function","name":"isTokenBlacklisted","inputs":[{"name":"token","type":"address","internalType":"address"}],"outputs":[{"name":"","type":"bool","internalType":"bool"}],"stateMutability":"view"},{"type":"function","name":"isTokenVerified","inputs":[{"name":"token","type":"address","internalType":"address"}],"outputs":[{"name":"","type":"bool","internalType":"bool"}],"stateMutability":"view"},{"type":"function","name":"nextChallengeId","inputs":[],"outputs":[{"name":"","type":"uint256","internalType":"uint256"}],"stateMutability":"view"},{"type":"function","name":"owner","inputs":[],"outputs":[{"name":"","type":"address","internalType":"address"}],"stateMutability":"view"},{"type":"function","name":"p2pChallengeAmounts","inputs":[{"name":"","type":"uint256","internalType":"uint256"}],"outputs":[{"name":"","type":"uint256","internalType":"uint256"}],"stateMutability":"view"},{"type":"function","name":"platformFeeBalance","inputs":[{"name":"","type":"address","internalType":"address"}],"outputs":[{"name":"","type":"uint256","internalType":"uint256"}],"stateMutability":"view"},{"type":"function","name":"platformFeePercentage","inputs":[],"outputs":[{"name":"","type":"uint256","internalType":"uint256"}],"stateMutability":"view"},{"type":"function","name":"platformFeeRecipient","inputs":[],"outputs":[{"name":"","type":"address","internalType":"address"}],"stateMutability":"view"},{"type":"function","name":"pointsToken","inputs":[],"outputs":[{"name":"","type":"address","internalType":"contract BantahPoints"}],"stateMutability":"view"},{"type":"function","name":"renounceOwnership","inputs":[],"outputs":[],"stateMutability":"nonpayable"},{"type":"function","name":"resolveChallenge","inputs":[{"name":"challengeId","type":"uint256","internalType":"uint256"},{"name":"winner","type":"address","internalType":"address"},{"name":"signature","type":"bytes","internalType":"bytes"}],"outputs":[],"stateMutability":"nonpayable"},{"type":"function","name":"setAdmin","inputs":[{"name":"newAdmin","type":"address","internalType":"address"}],"outputs":[],"stateMutability":"nonpayable"},{"type":"function","name":"setPlatformFeePercentage","inputs":[{"name":"newPercentage","type":"uint256","internalType":"uint256"}],"outputs":[],"stateMutability":"nonpayable"},{"type":"function","name":"setPlatformFeeRecipient","inputs":[{"name":"newRecipient","type":"address","internalType":"address"}],"outputs":[],"stateMutability":"nonpayable"},{"type":"function","name":"stakeEscrow","inputs":[],"outputs":[{"name":"","type":"address","internalType":"contract ChallengeEscrow"}],"stateMutability":"view"},{"type":"function","name":"transferOwnership","inputs":[{"name":"newOwner","type":"address","internalType":"address"}],"outputs":[],"stateMutability":"nonpayable"},{"type":"function","name":"verifiedTokens","inputs":[{"name":"","type":"address","internalType":"address"}],"outputs":[{"name":"","type":"bool","internalType":"bool"}],"stateMutability":"view"},{"type":"function","name":"verifyToken","inputs":[{"name":"token","type":"address","internalType":"address"},{"name":"verified","type":"bool","internalType":"bool"}],"outputs":[],"stateMutability":"nonpayable"},{"type":"function","name":"withdrawPlatformFees","inputs":[{"name":"token","type":"address","internalType":"address"}],"outputs":[],"stateMutability":"nonpayable"},{"type":"event","name":"AdminUpdated","inputs":[{"name":"newAdmin","type":"address","indexed":true,"internalType":"address"}],"anonymous":false},{"type":"event","name":"ChallengeCreatedGroup","inputs":[{"name":"challengeId","type":"uint256","indexed":true,"internalType":"uint256"},{"name":"creator","type":"address","indexed":true,"internalType":"address"},{"name":"paymentToken","type":"address","indexed":true,"internalType":"address"},{"name":"stakeAmount","type":"uint256","indexed":false,"internalType":"uint256"},{"name":"pointsReward","type":"uint256","indexed":false,"internalType":"uint256"}],"anonymous":false},{"type":"event","name":"ChallengeCreatedP2P","inputs":[{"name":"challengeId","type":"uint256","indexed":true,"internalType":"uint256"},{"name":"creator","type":"address","indexed":true,"internalType":"address"},{"name":"participant","type":"address","indexed":true,"internalType":"address"},{"name":"paymentToken","type":"address","indexed":false,"internalType":"address"},{"name":"stakeAmount","type":"uint256","indexed":false,"internalType":"uint256"},{"name":"pointsReward","type":"uint256","indexed":false,"internalType":"uint256"}],"anonymous":false},{"type":"event","name":"ChallengeResolved","inputs":[{"name":"challengeId","type":"uint256","indexed":true,"internalType":"uint256"},{"name":"winner","type":"address","indexed":true,"internalType":"address"},{"name":"paymentToken","type":"address","indexed":true,"internalType":"address"},{"name":"stakeAmount","type":"uint256","indexed":false,"internalType":"uint256"},{"name":"pointsAwarded","type":"uint256","indexed":false,"internalType":"uint256"}],"anonymous":false},{"type":"event","name":"OwnershipTransferred","inputs":[{"name":"previousOwner","type":"address","indexed":true,"internalType":"address"},{"name":"newOwner","type":"address","indexed":true,"internalType":"address"}],"anonymous":false},{"type":"event","name":"PaymentTokenToggled","inputs":[{"name":"token","type":"address","indexed":true,"internalType":"address"},{"name":"enabled","type":"bool","indexed":false,"internalType":"bool"}],"anonymous":false},{"type":"event","name":"PlatformFeeCollected","inputs":[{"name":"token","type":"address","indexed":true,"internalType":"address"},{"name":"amount","type":"uint256","indexed":false,"internalType":"uint256"}],"anonymous":false},{"type":"event","name":"PlatformFeePercentageUpdated","inputs":[{"name":"newPercentage","type":"uint256","indexed":false,"internalType":"uint256"}],"anonymous":false},{"type":"event","name":"PlatformFeeRecipientUpdated","inputs":[{"name":"newRecipient","type":"address","indexed":true,"internalType":"address"}],"anonymous":false},{"type":"event","name":"PlatformFeeWithdrawn","inputs":[{"name":"token","type":"address","indexed":true,"internalType":"address"},{"name":"amount","type":"uint256","indexed":false,"internalType":"uint256"},{"name":"recipient","type":"address","indexed":true,"internalType":"address"}],"anonymous":false},{"type":"event","name":"StakeClaimed","inputs":[{"name":"challengeId","type":"uint256","indexed":true,"internalType":"uint256"},{"name":"user","type":"address","indexed":true,"internalType":"address"},{"name":"paymentToken","type":"address","indexed":true,"internalType":"address"},{"name":"amount","type":"uint256","indexed":false,"internalType":"uint256"}],"anonymous":false},{"type":"event","name":"TokenBlacklisted","inputs":[{"name":"token","type":"address","indexed":true,"internalType":"address"},{"name":"blacklisted","type":"bool","indexed":false,"internalType":"bool"}],"anonymous":false},{"type":"event","name":"TokenVerified","inputs":[{"name":"token","type":"address","indexed":true,"internalType":"address"},{"name":"verified","type":"bool","indexed":false,"internalType":"bool"}],"anonymous":false},{"type":"error","name":"ECDSAInvalidSignature","inputs":[]},{"type":"error","name":"ECDSAInvalidSignatureLength","inputs":[{"name":"length","type":"uint256","internalType":"uint256"}]},{"type":"error","name":"ECDSAInvalidSignatureS","inputs":[{"name":"s","type":"bytes32","internalType":"bytes32"}]},{"type":"error","name":"OwnableInvalidOwner","inputs":[{"name":"owner","type":"address","internalType":"address"}]},{"type":"error","name":"OwnableUnauthorizedAccount","inputs":[{"name":"account","type":"address","internalType":"address"}]},{"type":"error","name":"ReentrancyGuardReentrantCall","inputs":[]},{"type":"error","name":"SafeERC20FailedOperation","inputs":[{"name":"token","type":"address","internalType":"address"}]}],"bytecode":{"object":"0x60803461027f57601f6123c538819003918201601f19168301916001600160401b038311848410176102835780849260809460405283398101031261027f5761004781610297565b9061005460208201610297565b9061006d606061006660408401610297565b9201610297565b9160017f9b779b17422d0df92223018b32b4d1fa46e071723d6817e2486d003becc55f0055331561026c575f8054336001600160a01b0319821681178355604051969290916001600160a01b0316907f8be0079c531659141344cd1fd0a4f28419497f9722a3daafe3b4186f6b6457e09080a36001600555600a6006556001600160a01b031693841561022a57506001600160a01b03169081156101f4576001600160a01b03169182156101bf576001600160a01b031692831561017a5760018060a01b0319600154161760015560018060a01b0319600254161760025560018060a01b0319600354161760035560018060a01b0319600454161760045560405161211990816102ac8239f35b60405162461bcd60e51b815260206004820152601560248201527f496e76616c69642066656520726563697069656e7400000000000000000000006044820152606490fd5b60405162461bcd60e51b815260206004820152600d60248201526c24b73b30b634b21030b236b4b760991b6044820152606490fd5b60405162461bcd60e51b815260206004820152600e60248201526d496e76616c696420657363726f7760901b6044820152606490fd5b62461bcd60e51b815260206004820152601460248201527f496e76616c696420706f696e747320746f6b656e0000000000000000000000006044820152606490fd5b631e4fbdf760e01b5f525f60045260245ffd5b5f80fd5b634e487b7160e01b5f52604160045260245ffd5b51906001600160a01b038216820361027f5756fe6080806040526004361015610012575f80fd5b5f905f3560e01c908163017b975b14611b1f575080630d8d2d0814611aac5780631871e24314611a0b578063190e4c5514611990578063199a714e1461143a5780631baaaffe146102375780631bdd4b741461122b57806344c7d6ef146110745780635c8b5f441461068e57806368a2b7de14610a8557806369249fba1461104a578063704b6c0214610fab578063715018a614610f5157806372e1011c14610f2857806379a1152214610b4a5780638333903e14610abe57806386ff06e714610a855780638da5cb5b14610a5e5780638f1d37761461096e578063c25d8b7b146106eb578063cdd78cfc146106cd578063ce9be9ba1461068e578063d2d6648214610611578063d35202e8146103f4578063eb13554f146103cb578063ec3889b514610276578063ec867b2714610237578063f2fde38b146101b1578063f851a440146101885763fc67aa5014610168575f80fd5b346101855780600319360112610185576020600554604051908152f35b80fd5b50346101855780600319360112610185576003546040516001600160a01b039091168152602090f35b5034610185576020366003190112610185576101cb611b6f565b6101d3611eb7565b6001600160a01b031680156102235781546001600160a01b03198116821783556001600160a01b03167f8be0079c531659141344cd1fd0a4f28419497f9722a3daafe3b4186f6b6457e08380a380f35b631e4fbdf760e01b82526004829052602482fd5b50346101855760203660031901126101855760209060ff906040906001600160a01b03610262611b6f565b168152600a84522054166040519015158152f35b503461018557602036600319011261018557610290611b6f565b610298611eb7565b6102a0611edd565b6001600160a01b03166102b4811515611d4d565b808252600c602052604082205490811561039057808352600c60205282604081205560018060a01b03600454166040519063a9059cbb60e01b85526004528260245260208460448180865af16001855114811615610371575b816040521561035d5760207f08273342a380b5301480c28ba6b7dfb7bfda23bfd871714c935e45a15e9cb8239160018060a01b0360045416948152a360015f5160206120c45f395f51905f525580f35b635274afe760e01b84526004829052602484fd5b600181151661038757823b15153d15161661030d565b503d84823e3d90fd5b60405162461bcd60e51b81526020600482015260136024820152724e6f206665657320746f20776974686472617760681b6044820152606490fd5b50346101855780600319360112610185576004546040516001600160a01b039091168152602090f35b503461018557602036600319011261018557600435610411611edd565b80825260076020526040822060ff60018201541660028110156105fd576001036105c457600681019160ff83541660058110156105b0576105765760028201546001600160a01b0316330361053f57600382018054600254600490940180548795939491939192610490926001600160a01b0390811691339116611f15565b60025492549154926001600160a01b039283169216803b1561053b57604051637a443e3d60e11b81523360048201526001600160a01b03939093166024840152604483019390935260648201529082908290608490829084905af1801561053057610517575b5050600160ff1982541617905560015f5160206120c45f395f51905f525580f35b8161052191611be7565b61052c57815f6104f6565b5080fd5b6040513d84823e3d90fd5b8480fd5b60405162461bcd60e51b815260206004820152600f60248201526e139bdd081c185c9d1a58da5c185b9d608a1b6044820152606490fd5b60405162461bcd60e51b815260206004820152601260248201527121b430b63632b733b2903737ba1037b832b760711b6044820152606490fd5b634e487b7160e01b85526021600452602485fd5b60405162461bcd60e51b81526020600482015260116024820152704e6f7420503250206368616c6c656e676560781b6044820152606490fd5b634e487b7160e01b84526021600452602484fd5b50346101855760207fd128f4457567637d4d9a19a54a44a6e47ba1ed0cc875b3cff7b762c8bb27b41661064336611b9b565b929061064d611eb7565b6001600160a01b031692610662841515611d4d565b838552600a825261068281604087209060ff801983541691151516179055565b6040519015158152a280f35b50346101855760203660031901126101855760209060ff906040906001600160a01b036106b9611b6f565b168152600b84522054166040519015158152f35b50346101855780600319360112610185576020600654604051908152f35b503461018557608036600319011261018557610705611b6f565b906044359060243560643567ffffffffffffffff811161096a5761072d903690600401611c47565b939094610738611eb7565b610740611edd565b6001600160a01b031692610755841515611d96565b838152600b60205261076e60ff60408320541615611dda565b610779831515611e1d565b610784821515611e5d565b6005549461079186611ea9565b6005558582526007602052604082208681556001810180546001600160a81b0319163360081b610100600160a81b03161790556009906003810180546001600160a01b03191688179055600481018690556005810185905560068101805460ff19169055426007820155019167ffffffffffffffff8211610956576108168354611c75565b601f8111610904575b5080602098839291601f84116001146108a15792610896575b50508160011b915f199060031b1c19161790555b60405191825284820152827fac61621ed399481a7fdd906a7b94c9d3667dee8643e9c121e783b860a3f2282d60403393a460015f5160206120c45f395f51905f5255604051908152f35b013590505f80610838565b925090601f1984168584528a8420935b8181106108ed57509084600195949392106108d4575b505050811b01905561084c565b01355f19600384901b60f8161c191690555f80806108c7565b91938b6001819287870135815501950192016108b1565b8281111561081f579783825260208220601f840160051c906020851061094e575b810199601f0160051c03825b8181106109405750509761081f565b80846001928d015501610931565b839150610925565b634e487b7160e01b81526041600452602490fd5b8280fd5b50346101855760203660031901126101855760409060043581526007602052208054610a5a60018301549260018060a01b036002820154169060018060a01b03600382015416600482015460058301546006840154916007850154936109db600960088801549701611cad565b966040519a8b9a8b526109f460208c0160ff8316611c09565b60081c6001600160a01b031660408b015260608a0152608089015260a088015260c0870152610a2960e0870160ff8316611c16565b60081c6001600160a01b03166101008601526101208501526101408401526101806101608401819052830190611c23565b0390f35b5034610185578060031936011261018557546040516001600160a01b039091168152602090f35b5034610185576020366003190112610185576020906040906001600160a01b03610aad611b6f565b168152600c83522054604051908152f35b503461018557602036600319011261018557600435610adb611eb7565b6127108111610b16576020817fd0a5ddfa06600c6481dcd2923a572827c06e53859f23f7ddab41ff3144ee868792600655604051908152a180f35b60405162461bcd60e51b815260206004820152600c60248201526b08ccaca40e8dede40d0d2ced60a31b6044820152606490fd5b50346101855760a036600319011261018557610b64611b6f565b610b6c611b85565b6044359160643560843567ffffffffffffffff8111610dbb57610b93903690600401611c47565b949092610b9e611edd565b6001600160a01b0316938415610eed57338514610ea8576001600160a01b03811693610bcb851515611d96565b848852600b602052610be460ff60408a20541615611dda565b610bef831515611e1d565b610bfa841515611e5d565b600254610c139084906001600160a01b03163388611f15565b60055496610c2088611ea9565b600555878952600760205260408920888155600180820180546001600160a81b0319163360081b610100600160a81b031617909117905560099060028101896001600160601b0360a01b82541617905560038101886001600160601b0360a01b8254161790558560048201558660058201556006810160ff198154169055426007820155019167ffffffffffffffff8211610e94578190610cc18454611c75565b601f8111610e3a575b508a90601f8311600114610dd5578b92610dca575b50508160011b915f199060031b1c19161790555b6002546001600160a01b0316908790823b1561052c57604051637a443e3d60e11b81523360048201526001600160a01b039190911660248201526044810184905260648101889052918290608490829084905af18015610dbf57610da6575b5060209550604051928352858301526040820152827ff4f5a9f479b06cd99960b03cddc4864cb98eaa763a8f668617c80f589512777960603393a460015f5160206120c45f395f51905f5255604051908152f35b610db1878092611be7565b610dbb5785610d52565b8580fd5b6040513d89823e3d90fd5b013590505f80610cdf565b848c5260208c20925090601f1984168c5b818110610e225750908460019594939210610e09575b505050811b019055610cf3565b01355f19600384901b60f8161c191690555f8080610dfc565b91936020600181928787013581550195019201610de6565b82811115610cca57909150838b5260208b20601f840160051c9060208510610e8c575b849392601f0160051c82900391018c5b828110610e7b575050610cca565b8082018e9055859450600101610e6d565b8c9150610e5d565b634e487b7160e01b8a52604160045260248afd5b60405162461bcd60e51b815260206004820152601960248201527f43616e6e6f74206368616c6c656e676520796f757273656c66000000000000006044820152606490fd5b60405162461bcd60e51b8152602060048201526013602482015272125b9d985b1a59081c185c9d1a58da5c185b9d606a1b6044820152606490fd5b50346101855780600319360112610185576001546040516001600160a01b039091168152602090f35b5034610185578060031936011261018557610f6a611eb7565b80546001600160a01b03198116825581906001600160a01b03167f8be0079c531659141344cd1fd0a4f28419497f9722a3daafe3b4186f6b6457e08280a380f35b503461018557602036600319011261018557610fc5611b6f565b610fcd611eb7565b6001600160a01b0316801561101557600380546001600160a01b031916821790557f54e4612788f90384e6843298d7854436f3a585b2c3831ab66abf1de63bfa6c2d8280a280f35b60405162461bcd60e51b815260206004820152600d60248201526c24b73b30b634b21030b236b4b760991b6044820152606490fd5b50346101855760203660031901126101855760406020916004358152600983522054604051908152f35b503461018557602036600319011261018557600435611091611edd565b8082526007602052604082209060068201805460ff81166005811015611217576002036111d95760081c6001600160a01b031633810361119c5715611167576040516110de604082611be7565b6001815260208082019190368337511561115357339052600360ff19825416179055600460018060a01b03600384015416920154906040519182527f401af6acaf4dfd2ab7650e060f96cf76f6a51fd9d42102601e60fdacd4eacff260203393a460015f5160206120c45f395f51905f525580f35b634e487b7160e01b85526032600452602485fd5b60405162461bcd60e51b815260206004820152600d60248201526c139bc81dda5b9b995c881cd95d609a1b6044820152606490fd5b60405162461bcd60e51b81526020600482015260156024820152744f6e6c792077696e6e65722063616e20636c61696d60581b6044820152606490fd5b60405162461bcd60e51b815260206004820152601660248201527510da185b1b195b99d9481b9bdd081c995cdbdb1d995960521b6044820152606490fd5b634e487b7160e01b86526021600452602486fd5b503461018557602036600319011261018557606061016060405161124e81611bca565b83815283602082015283604082015283838201528360808201528360a08201528360c08201528360e082015283610100820152836101208201528361014082015201526004358152600760205260408120604051906112ac82611bca565b8054825260018101549060ff8216936020840194600281101561142657855260089290921c6001600160a01b03908116604085019081526002830154821660608601908152600384015490921660808601908152600484015460a0870190815260058086015460c089019081526006870154949760e08a019491939260ff8716919082101561141257508452600894851c6001600160a01b03166101008a0190815260078801546101208b01908152958801546101408b01908152979596909561137890600901611cad565b986101608b01998a526040519b8c9b60208d525160208d01525160408c0161139f91611c09565b516001600160a01b0390811660608c01529051811660808b015290511660a08901525160c08801525160e0870152516113dd90610100870190611c16565b516001600160a01b031661012085015251610140840152516101608301525161018080830152610a5a906101a0830190611c23565b634e487b7160e01b81526021600452602490fd5b634e487b7160e01b82526021600452602482fd5b50346117b95760603660031901126117b957600435611457611b85565b906044359067ffffffffffffffff82116117b957366023830112156117b957816004013567ffffffffffffffff811161197c57604051926114a2601f8301601f191660200185611be7565b81845236602483830101116117b957815f9260246020930183870137840101526114ca611edd565b805f52600760205260405f2092600684019060ff82541660058110156118ac578015908115611971575b501561193b576001600160a01b0381169384156119055761157161157a9160405160208101908782526001600160601b03198660601b1660408201526034815261153f605482611be7565b5190207f19457468657265756d205369676e6564204d6573736167653a0a3332000000005f52601c52603c5f20611fa7565b90929192611fe1565b6003546001600160a01b039081169116036118c05781546001600160a81b03191660089190911b610100600160a81b031617600217905542600884015560018301545f8060ff831660028110156118ac576001810361183d5750505060048401548060011b9080820460021490151715611824579060081c6001600160a01b0316838103611838575060028401546001600160a01b03165b905b60065480820290828204148215171561182457612710900480820391821161182457806117c4575b506002546001600160a01b0390811692908116156117bd575b600386019260018060a01b0384541690803b156117b9575f928360a49260405196879586946297d05560e51b865260018060a01b031660048601528b6024860152604485015260648401528860848401525af180156117ae57611799575b5060018060a01b0360015416908560058601928354813b1561096a57829160c483926040519485938492631fe18a1760e21b84528c600485015260248401528a60448401526080606484015260116084840152704368616c6c656e676520766963746f727960781b60a48401525af1801561053057611784575b50507f0247b762d340895e9ba5c4e57a8f9b65eb56e04f1786bbe81fdcd64432cf1e5d91600460409260018060a01b03905416960154905482519182526020820152a460015f5160206120c45f395f51905f525580f35b8161178e91611be7565b610dbb57855f61172d565b6117a69195505f90611be7565b5f935f6116b3565b6040513d5f823e3d90fd5b5f80fd5b5030611655565b7fd0a602bb26e23a82d1071b569dda4305120744b857e3d08eb1779d5d3478c54160206003880160018060a01b038154165f52600c825260405f2061180a858254611d89565b9055546040519384526001600160a01b031692a25f61163c565b634e487b7160e01b5f52601160045260245ffd5b611612565b90919250611614575f8381526008602052604081208054915b82811061186557505050611614565b866118708284611b42565b50546001600160a01b031603611889575b600101611856565b926118a46001918261189b8786611b42565b50015490611d89565b939050611881565b634e487b7160e01b5f52602160045260245ffd5b60405162461bcd60e51b815260206004820152601760248201527f496e76616c69642061646d696e207369676e61747572650000000000000000006044820152606490fd5b60405162461bcd60e51b815260206004820152600e60248201526d24b73b30b634b2103bb4b73732b960911b6044820152606490fd5b60405162461bcd60e51b815260206004820152600e60248201526d496e76616c69642073746174757360901b6044820152606490fd5b60019150145f6114f4565b634e487b7160e01b5f52604160045260245ffd5b346117b95760207fced2684241c29578df8f7fbab74348d0053114fa157b900b2f1f4a1d4a2b33956119c136611b9b565b92906119cb611eb7565b6001600160a01b0316926119e0841515611d4d565b835f52600b8252611a008160405f209060ff801983541691151516179055565b6040519015158152a2005b346117b95760203660031901126117b957611a24611b6f565b611a2c611eb7565b6001600160a01b03168015611a7357600480546001600160a01b031916821790557fba887708e7d4436dd36b62187bdced03e0b9abe66caf392a66dd84386641b2095f80a2005b60405162461bcd60e51b8152602060048201526011602482015270125b9d985b1a59081c9958da5c1a595b9d607a1b6044820152606490fd5b346117b95760403660031901126117b9576024356004355f52600860205260405f2080548210156117b957608091611ae391611b42565b5080549060ff60026001830154920154169060ff6040519360018060a01b038116855260a01c1615156020840152604083015215156060820152f35b346117b9575f3660031901126117b9576002546001600160a01b03168152602090f35b8054821015611b5b575f52600360205f20910201905f90565b634e487b7160e01b5f52603260045260245ffd5b600435906001600160a01b03821682036117b957565b602435906001600160a01b03821682036117b957565b60409060031901126117b9576004356001600160a01b03811681036117b9579060243580151581036117b95790565b610180810190811067ffffffffffffffff82111761197c57604052565b90601f8019910116810190811067ffffffffffffffff82111761197c57604052565b9060028210156118ac5752565b9060058210156118ac5752565b805180835260209291819084018484015e5f828201840152601f01601f1916010190565b9181601f840112156117b95782359167ffffffffffffffff83116117b957602083818601950101116117b957565b90600182811c92168015611ca3575b6020831014611c8f57565b634e487b7160e01b5f52602260045260245ffd5b91607f1691611c84565b9060405191825f825492611cc084611c75565b8084529360018116908115611d2b5750600114611ce7575b50611ce592500383611be7565b565b90505f9291925260205f20905f915b818310611d0f575050906020611ce5928201015f611cd8565b6020919350806001915483858901015201910190918492611cf6565b905060209250611ce594915060ff191682840152151560051b8201015f611cd8565b15611d5457565b60405162461bcd60e51b815260206004820152600d60248201526c24b73b30b634b2103a37b5b2b760991b6044820152606490fd5b9190820180921161182457565b15611d9d57565b60405162461bcd60e51b815260206004820152601560248201527424b73b30b634b2103830bcb6b2b73a103a37b5b2b760591b6044820152606490fd5b15611de157565b60405162461bcd60e51b8152602060048201526014602482015273151bdad95b881a5cc8189b1858dadb1a5cdd195960621b6044820152606490fd5b15611e2457565b60405162461bcd60e51b815260206004820152601160248201527005374616b65206d757374206265203e203607c1b6044820152606490fd5b15611e6457565b60405162461bcd60e51b815260206004820152601960248201527f506f696e747320726577617264206d757374206265203e2030000000000000006044820152606490fd5b5f1981146118245760010190565b5f546001600160a01b03163303611eca57565b63118cdaa760e01b5f523360045260245ffd5b60025f5160206120c45f395f51905f525414611f065760025f5160206120c45f395f51905f5255565b633ee5aeb560e01b5f5260045ffd5b6040516323b872dd60e01b5f9081526001600160a01b039384166004529290931660245260449390935260209060648180865af19060015f5114821615611f86575b6040525f60605215611f665750565b635274afe760e01b5f9081526001600160a01b0391909116600452602490fd5b906001811516611f9e57823b15153d15161690611f57565b503d5f823e3d90fd5b8151919060418303611fd757611fd09250602082015190606060408401519301515f1a90612041565b9192909190565b50505f9160029190565b60048110156118ac5780611ff3575050565b6001810361200a5763f645eedf60e01b5f5260045ffd5b60028103612025575063fce698f760e01b5f5260045260245ffd5b60031461202f5750565b6335e2f38360e21b5f5260045260245ffd5b91907f7fffffffffffffffffffffffffffffff5d576e7357a4501ddfe92f46681b20a084116120b8579160209360809260ff5f9560405194855216868401526040830152606082015282805260015afa156117ae575f516001600160a01b038116156120ae57905f905f90565b505f906001905f90565b5050505f916003919056fe9b779b17422d0df92223018b32b4d1fa46e071723d6817e2486d003becc55f00a2646970667358221220cbd95c52d0e877a7b310b7b04690070454fb5c623d2eedb48322490e914d1cff64736f6c63430008210033","linkReferences":{}},"methodIdentifiers":{"acceptP2PChallenge(uint256)":"d35202e8","admin()":"f851a440","blacklistToken(address,bool)":"190e4c55","blacklistedTokens(address)":"5c8b5f44","challenges(uint256)":"8f1d3776","claimStake(uint256)":"44c7d6ef","createGroupChallenge(address,uint256,uint256,string)":"c25d8b7b","createP2PChallenge(address,address,uint256,uint256,string)":"79a11522","getChallenge(uint256)":"1bdd4b74","getPlatformFeeBalance(address)":"68a2b7de","groupChallengeParticipants(uint256,uint256)":"0d8d2d08","isTokenBlacklisted(address)":"ce9be9ba","isTokenVerified(address)":"ec867b27","nextChallengeId()":"fc67aa50","owner()":"8da5cb5b","p2pChallengeAmounts(uint256)":"69249fba","platformFeeBalance(address)":"86ff06e7","platformFeePercentage()":"cdd78cfc","platformFeeRecipient()":"eb13554f","pointsToken()":"72e1011c","renounceOwnership()":"715018a6","resolveChallenge(uint256,address,bytes)":"199a714e","setAdmin(address)":"704b6c02","setPlatformFeePercentage(uint256)":"8333903e","setPlatformFeeRecipient(address)":"1871e243","stakeEscrow()":"017b975b","transferOwnership(address)":"f2fde38b","verifiedTokens(address)":"1baaaffe","verifyToken(address,bool)":"d2d66482","withdrawPlatformFees(address)":"ec3889b5"},"id":46}