{"abi":[{"type":"constructor","inputs":[{"name":"_challengeFactory","type":"address","internalType":"address"}],"stateMutability":"nonpayable"},{"type":"function","name":"challengeFactory","inputs":[],"outputs":[{"name":"","type":"address","internalType":"address"}],"stateMutability":"view"},{"type":"function","name":"challengeParticipants","inputs":[{"name":"","type":"uint256","internalType":"uint256"},{"name":"","type":"uint256","internalType":"uint256"}],"outputs":[{"name":"","type":"address","internalType":"address"}],"stateMutability":"view"},{"type":"function","name":"challengeStakes","inputs":[{"name":"","type":"uint256","internalType":"uint256"},{"name":"","type":"uint256","internalType":"uint256"}],"outputs":[{"name":"token","type":"address","internalType":"address"},{"name":"amount","type":"uint256","internalType":"uint256"},{"name":"lockedAt","type":"uint256","internalType":"uint256"},{"name":"challengeId","type":"uint256","internalType":"uint256"},{"name":"released","type":"bool","internalType":"bool"}],"stateMutability":"view"},{"type":"function","name":"getChallengeParticipants","inputs":[{"name":"challengeId","type":"uint256","internalType":"uint256"}],"outputs":[{"name":"","type":"address[]","internalType":"address[]"}],"stateMutability":"view"},{"type":"function","name":"getChallengeStakes","inputs":[{"name":"challengeId","type":"uint256","internalType":"uint256"}],"outputs":[{"name":"","type":"tuple[]","internalType":"struct ChallengeEscrow.LockedStake[]","components":[{"name":"token","type":"address","internalType":"address"},{"name":"amount","type":"uint256","internalType":"uint256"},{"name":"lockedAt","type":"uint256","internalType":"uint256"},{"name":"challengeId","type":"uint256","internalType":"uint256"},{"name":"released","type":"bool","internalType":"bool"}]}],"stateMutability":"view"},{"type":"function","name":"getTotalLockedByToken","inputs":[{"name":"user","type":"address","internalType":"address"},{"name":"token","type":"address","internalType":"address"}],"outputs":[{"name":"","type":"uint256","internalType":"uint256"}],"stateMutability":"view"},{"type":"function","name":"lockStake","inputs":[{"name":"user","type":"address","internalType":"address"},{"name":"token","type":"address","internalType":"address"},{"name":"amount","type":"uint256","internalType":"uint256"},{"name":"challengeId","type":"uint256","internalType":"uint256"}],"outputs":[],"stateMutability":"nonpayable"},{"type":"function","name":"owner","inputs":[],"outputs":[{"name":"","type":"address","internalType":"address"}],"stateMutability":"view"},{"type":"function","name":"releaseStakes","inputs":[{"name":"challengeId","type":"uint256","internalType":"uint256"},{"name":"users","type":"address[]","internalType":"address[]"}],"outputs":[],"stateMutability":"nonpayable"},{"type":"function","name":"renounceOwnership","inputs":[],"outputs":[],"stateMutability":"nonpayable"},{"type":"function","name":"setChallengeFactory","inputs":[{"name":"_newFactory","type":"address","internalType":"address"}],"outputs":[],"stateMutability":"nonpayable"},{"type":"function","name":"totalLockedByToken","inputs":[{"name":"","type":"address","internalType":"address"},{"name":"","type":"address","internalType":"address"}],"outputs":[{"name":"","type":"uint256","internalType":"uint256"}],"stateMutability":"view"},{"type":"function","name":"transferOwnership","inputs":[{"name":"newOwner","type":"address","internalType":"address"}],"outputs":[],"stateMutability":"nonpayable"},{"type":"function","name":"transferStake","inputs":[{"name":"from","type":"address","internalType":"address"},{"name":"to","type":"address","internalType":"address"},{"name":"token","type":"address","internalType":"address"},{"name":"amount","type":"uint256","internalType":"uint256"},{"name":"challengeId","type":"uint256","internalType":"uint256"}],"outputs":[],"stateMutability":"nonpayable"},{"type":"event","name":"ChallengeFactoryUpdated","inputs":[{"name":"newFactory","type":"address","indexed":true,"internalType":"address"}],"anonymous":false},{"type":"event","name":"OwnershipTransferred","inputs":[{"name":"previousOwner","type":"address","indexed":true,"internalType":"address"},{"name":"newOwner","type":"address","indexed":true,"internalType":"address"}],"anonymous":false},{"type":"event","name":"StakeLocked","inputs":[{"name":"user","type":"address","indexed":true,"internalType":"address"},{"name":"token","type":"address","indexed":true,"internalType":"address"},{"name":"amount","type":"uint256","indexed":false,"internalType":"uint256"},{"name":"challengeId","type":"uint256","indexed":true,"internalType":"uint256"}],"anonymous":false},{"type":"event","name":"StakeReleased","inputs":[{"name":"user","type":"address","indexed":true,"internalType":"address"},{"name":"token","type":"address","indexed":true,"internalType":"address"},{"name":"amount","type":"uint256","indexed":false,"internalType":"uint256"},{"name":"challengeId","type":"uint256","indexed":true,"internalType":"uint256"}],"anonymous":false},{"type":"event","name":"StakeTransferred","inputs":[{"name":"from","type":"address","indexed":true,"internalType":"address"},{"name":"to","type":"address","indexed":true,"internalType":"address"},{"name":"token","type":"address","indexed":true,"internalType":"address"},{"name":"amount","type":"uint256","indexed":false,"internalType":"uint256"},{"name":"challengeId","type":"uint256","indexed":false,"internalType":"uint256"},{"name":"reason","type":"string","indexed":false,"internalType":"string"}],"anonymous":false},{"type":"error","name":"OwnableInvalidOwner","inputs":[{"name":"owner","type":"address","internalType":"address"}]},{"type":"error","name":"OwnableUnauthorizedAccount","inputs":[{"name":"account","type":"address","internalType":"address"}]},{"type":"error","name":"ReentrancyGuardReentrantCall","inputs":[]},{"type":"error","name":"SafeERC20FailedOperation","inputs":[{"name":"token","type":"address","internalType":"address"}]}],"bytecode":{"object":"0x60803461013357601f610f3b38819003918201601f19168301916001600160401b038311848410176101375780849260209460405283398101031261013357516001600160a01b038116908190036101335760017f9b779b17422d0df92223018b32b4d1fa46e071723d6817e2486d003becc55f00553315610120575f8054336001600160a01b03198216811783556040519290916001600160a01b0316907f8be0079c531659141344cd1fd0a4f28419497f9722a3daafe3b4186f6b6457e09080a381156100ec5750600180546001600160a01b031916919091179055604051610def908161014c8239f35b62461bcd60e51b815260206004820152600f60248201526e496e76616c696420666163746f727960881b6044820152606490fd5b631e4fbdf760e01b5f525f60045260245ffd5b5f80fd5b634e487b7160e01b5f52604160045260245ffdfe6080806040526004361015610012575f80fd5b5f3560e01c908163023bf95814610a7e5750806312fa0aa0146108ea578063137b2988146108795780635479da3d146104255780635c3d9dec146107da5780635dbaf68b146107b25780636b12afa01461061f578063715018a6146105c85780638da5cb5b146105a15780639d7d4b9614610475578063c84c7da814610425578063f2fde38b146103a0578063f4887c7a146101025763ffac1a95146100b6575f80fd5b346100fe576100c436610b5f565b905f52600360205260405f2080548210156100fe576020916100e591610ba2565b905460405160039290921b1c6001600160a01b03168152f35b5f80fd5b346100fe5760803660031901126100fe5761011b610b33565b610123610b49565b604435906064359261014060018060a01b03600154163314610bf5565b610148610cc3565b6001600160a01b031690811561036c576001600160a01b03169161016d831515610c39565b610178811515610c75565b6040516323b872dd60e01b5f5233600452306024528160445260205f60648180885af160015f511481161561034d575b816040525f6060521561033a576101be81610bb7565b838152602081019082825260408101914283526060820187815260808301935f8552885f52600460205260405f208054600160401b8110156102ff5761020991600182018155610b75565b9390936103275760049460018060a01b039051166bffffffffffffffffffffffff60a01b855416178455516001840155516002830155516003820155019051151560ff80198354169116179055815f52600260205260405f20835f5260205260405f208054908282018092116103135755835f52600360205260405f2090815490600160401b8210156102ff576102c9827f1d80c2b0b59d2f1543a8b483e392137e35f1d5ebfffcb3ad3a85c07a75636313946001602095018155610ba2565b81546001600160a01b0360039290921b91821b19169086901b179055604051908152a460015f516020610d9a5f395f51905f5255005b634e487b7160e01b5f52604160045260245ffd5b634e487b7160e01b5f52601160045260245ffd5b634e487b7160e01b5f525f60045260245ffd5b83635274afe760e01b5f5260045260245ffd5b600181151661036357843b15153d1516166101a8565b503d5f823e3d90fd5b60405162461bcd60e51b815260206004820152600c60248201526b24b73b30b634b2103ab9b2b960a11b6044820152606490fd5b346100fe5760203660031901126100fe576103b9610b33565b6103c1610d73565b6001600160a01b03168015610412575f80546001600160a01b03198116831782556001600160a01b0316907f8be0079c531659141344cd1fd0a4f28419497f9722a3daafe3b4186f6b6457e09080a3005b631e4fbdf760e01b5f525f60045260245ffd5b346100fe5760403660031901126100fe5761043e610b33565b610446610b49565b6001600160a01b039182165f908152600260209081526040808320949093168252928352819020549051908152f35b346100fe5760203660031901126100fe576004355f52600460205260405f2080549067ffffffffffffffff82116102ff57604051916104ba60208260051b0184610bd3565b8083526020830180925f5260205f205f915b83831061054a578486604051918291602083019060208452518091526040830191905f5b8181106104fe575050500390f35b91935091602060a0600192608087518580851b038151168352848101518584015260408101516040840152606081015160608401520151151560808201520194019101918493926104f0565b6005602060019260405161055d81610bb7565b848060a01b0386541681528486015483820152600286015460408201526003860154606082015260ff600487015416151560808201528152019201920191906104cc565b346100fe575f3660031901126100fe575f546040516001600160a01b039091168152602090f35b346100fe575f3660031901126100fe576105e0610d73565b5f80546001600160a01b0319811682556001600160a01b03167f8be0079c531659141344cd1fd0a4f28419497f9722a3daafe3b4186f6b6457e08280a3005b346100fe5760403660031901126100fe5760243560043567ffffffffffffffff82116100fe57366023830112156100fe5781600401359067ffffffffffffffff82116100fe573660248360051b850101116100fe5761068960018060a01b03600154163314610bf5565b610691610cc3565b805f52600460205260405f20925f925b8084101561079f57600584901b820160240135916001600160a01b038316918284036100fe575f5b875481101561078f57808686866106e26001958d610b75565b506004810160ff815416156106fd575b5050505050016106c9565b7f607e275a4cdbfc07ae250ee663261b358db8397a819037f055b7c5d9730a821b9160209161073a898060a01b038354168a840197885491610cfb565b85545f868152600285526040808220855460a08e901b8e9003168352865290208054909161076791610cb6565b90558860ff19825416179055878060a01b039054169354604051908152a48686868c806106f2565b50949092506001915001926106a1565b60015f516020610d9a5f395f51905f5255005b346100fe575f3660031901126100fe576001546040516001600160a01b039091168152602090f35b346100fe5760203660031901126100fe576107f3610b33565b6107fb610d73565b6001600160a01b0316801561084257600180546001600160a01b031916821790557fb9a1f6d01069d240a4bebe47b464192f46dc977bf49ec60b388e25e4db1a88af5f80a2005b60405162461bcd60e51b815260206004820152600f60248201526e496e76616c696420666163746f727960881b6044820152606490fd5b346100fe5761088736610b5f565b905f52600460205260405f2080548210156100fe5760a0916108a891610b75565b50600180831b0381541690600181015490600281015460ff60046003840154930154169260405194855260208501526040840152606083015215156080820152f35b346100fe5760a03660031901126100fe57610903610b33565b61090b610b49565b6044356001600160a01b03811692908390036100fe576064359061093a60018060a01b03600154163314610bf5565b610942610cc3565b6001600160a01b0316908115610a4a576001600160a01b038316928315610a1857816109a87fea5d9bc662aefe5f02d7f0544d609f56eb4d7273187209c55fd79fdc1516fe989360a093610997891515610c39565b6109a2821515610c75565b88610cfb565b835f52600260205260405f20865f5260205260405f206109c9828254610cb6565b9055604051908152608435602082015260606040820152601460608201527310da185b1b195b99d9481cd95d1d1b195b595b9d60621b6080820152a460015f516020610d9a5f395f51905f5255005b60405162461bcd60e51b815260206004820152600a602482015269496e76616c696420746f60b01b6044820152606490fd5b60405162461bcd60e51b815260206004820152600c60248201526b496e76616c69642066726f6d60a01b6044820152606490fd5b346100fe5760203660031901126100fe576004355f52600360205260405f20908154808252602082019081935f5260205f20905f5b818110610b145750505081610ac9910382610bd3565b604051918291602083019060208452518091526040830191905f5b818110610af2575050500390f35b82516001600160a01b0316845285945060209384019390920191600101610ae4565b82546001600160a01b0316845260209093019260019283019201610ab3565b600435906001600160a01b03821682036100fe57565b602435906001600160a01b03821682036100fe57565b60409060031901126100fe576004359060243590565b8054821015610b8e575f52600560205f20910201905f90565b634e487b7160e01b5f52603260045260245ffd5b8054821015610b8e575f5260205f2001905f90565b60a0810190811067ffffffffffffffff8211176102ff57604052565b90601f8019910116810190811067ffffffffffffffff8211176102ff57604052565b15610bfc57565b60405162461bcd60e51b81526020600482015260156024820152744f6e6c79204368616c6c656e6765466163746f727960581b6044820152606490fd5b15610c4057565b60405162461bcd60e51b815260206004820152600d60248201526c24b73b30b634b2103a37b5b2b760991b6044820152606490fd5b15610c7c57565b60405162461bcd60e51b81526020600482015260126024820152710416d6f756e74206d757374206265203e20360741b6044820152606490fd5b9190820391821161031357565b60025f516020610d9a5f395f51905f525414610cec5760025f516020610d9a5f395f51905f5255565b633ee5aeb560e01b5f5260045ffd5b916040519163a9059cbb60e01b5f5260018060a01b031660045260245260205f60448180865af19060015f5114821615610d5b575b60405215610d3b5750565b635274afe760e01b5f9081526001600160a01b0391909116600452602490fd5b90600181151661036357823b15153d15161690610d30565b5f546001600160a01b03163303610d8657565b63118cdaa760e01b5f523360045260245ffdfe9b779b17422d0df92223018b32b4d1fa46e071723d6817e2486d003becc55f00a2646970667358221220c93541495a2f49ee5655d5fd1d03d710d23c8ad664534d20a75555aa74a1d2f764736f6c63430008210033","linkReferences":{}},"methodIdentifiers":{"challengeFactory()":"5dbaf68b","challengeParticipants(uint256,uint256)":"ffac1a95","challengeStakes(uint256,uint256)":"137b2988","getChallengeParticipants(uint256)":"023bf958","getChallengeStakes(uint256)":"9d7d4b96","getTotalLockedByToken(address,address)":"c84c7da8","lockStake(address,address,uint256,uint256)":"f4887c7a","owner()":"8da5cb5b","releaseStakes(uint256,address[])":"6b12afa0","renounceOwnership()":"715018a6","setChallengeFactory(address)":"5c3d9dec","totalLockedByToken(address,address)":"5479da3d","transferOwnership(address)":"f2fde38b","transferStake(address,address,address,uint256,uint256)":"12fa0aa0"},"id":44}