{"abi":[{"type":"constructor","inputs":[],"stateMutability":"nonpayable"},{"type":"function","name":"allowance","inputs":[{"name":"owner","type":"address","internalType":"address"},{"name":"spender","type":"address","internalType":"address"}],"outputs":[{"name":"","type":"uint256","internalType":"uint256"}],"stateMutability":"view"},{"type":"function","name":"approve","inputs":[{"name":"spender","type":"address","internalType":"address"},{"name":"value","type":"uint256","internalType":"uint256"}],"outputs":[{"name":"","type":"bool","internalType":"bool"}],"stateMutability":"nonpayable"},{"type":"function","name":"awardPoints","inputs":[{"name":"user","type":"address","internalType":"address"},{"name":"amount","type":"uint256","internalType":"uint256"},{"name":"challengeId","type":"uint256","internalType":"uint256"},{"name":"reason","type":"string","internalType":"string"}],"outputs":[],"stateMutability":"nonpayable"},{"type":"function","name":"balanceOf","inputs":[{"name":"account","type":"address","internalType":"address"}],"outputs":[{"name":"","type":"uint256","internalType":"uint256"}],"stateMutability":"view"},{"type":"function","name":"burn","inputs":[{"name":"value","type":"uint256","internalType":"uint256"}],"outputs":[],"stateMutability":"nonpayable"},{"type":"function","name":"burnFrom","inputs":[{"name":"account","type":"address","internalType":"address"},{"name":"value","type":"uint256","internalType":"uint256"}],"outputs":[],"stateMutability":"nonpayable"},{"type":"function","name":"burnPointsFrom","inputs":[{"name":"user","type":"address","internalType":"address"},{"name":"amount","type":"uint256","internalType":"uint256"}],"outputs":[],"stateMutability":"nonpayable"},{"type":"function","name":"challengePointsAwarded","inputs":[{"name":"","type":"uint256","internalType":"uint256"}],"outputs":[{"name":"","type":"uint256","internalType":"uint256"}],"stateMutability":"view"},{"type":"function","name":"decimals","inputs":[],"outputs":[{"name":"","type":"uint8","internalType":"uint8"}],"stateMutability":"view"},{"type":"function","name":"getChallengePoints","inputs":[{"name":"challengeId","type":"uint256","internalType":"uint256"}],"outputs":[{"name":"","type":"uint256","internalType":"uint256"}],"stateMutability":"view"},{"type":"function","name":"getUserPointsBalance","inputs":[{"name":"user","type":"address","internalType":"address"}],"outputs":[{"name":"","type":"uint256","internalType":"uint256"}],"stateMutability":"view"},{"type":"function","name":"name","inputs":[],"outputs":[{"name":"","type":"string","internalType":"string"}],"stateMutability":"view"},{"type":"function","name":"owner","inputs":[],"outputs":[{"name":"","type":"address","internalType":"address"}],"stateMutability":"view"},{"type":"function","name":"pointsManager","inputs":[],"outputs":[{"name":"","type":"address","internalType":"address"}],"stateMutability":"view"},{"type":"function","name":"renounceOwnership","inputs":[],"outputs":[],"stateMutability":"nonpayable"},{"type":"function","name":"setPointsManager","inputs":[{"name":"newManager","type":"address","internalType":"address"}],"outputs":[],"stateMutability":"nonpayable"},{"type":"function","name":"symbol","inputs":[],"outputs":[{"name":"","type":"string","internalType":"string"}],"stateMutability":"view"},{"type":"function","name":"totalSupply","inputs":[],"outputs":[{"name":"","type":"uint256","internalType":"uint256"}],"stateMutability":"view"},{"type":"function","name":"transfer","inputs":[{"name":"to","type":"address","internalType":"address"},{"name":"value","type":"uint256","internalType":"uint256"}],"outputs":[{"name":"","type":"bool","internalType":"bool"}],"stateMutability":"nonpayable"},{"type":"function","name":"transferFrom","inputs":[{"name":"from","type":"address","internalType":"address"},{"name":"to","type":"address","internalType":"address"},{"name":"value","type":"uint256","internalType":"uint256"}],"outputs":[{"name":"","type":"bool","internalType":"bool"}],"stateMutability":"nonpayable"},{"type":"function","name":"transferOwnership","inputs":[{"name":"newOwner","type":"address","internalType":"address"}],"outputs":[],"stateMutability":"nonpayable"},{"type":"function","name":"transferPoints","inputs":[{"name":"to","type":"address","internalType":"address"},{"name":"amount","type":"uint256","internalType":"uint256"}],"outputs":[{"name":"","type":"bool","internalType":"bool"}],"stateMutability":"nonpayable"},{"type":"function","name":"userPointsBalance","inputs":[{"name":"","type":"address","internalType":"address"}],"outputs":[{"name":"","type":"uint256","internalType":"uint256"}],"stateMutability":"view"},{"type":"event","name":"Approval","inputs":[{"name":"owner","type":"address","indexed":true,"internalType":"address"},{"name":"spender","type":"address","indexed":true,"internalType":"address"},{"name":"value","type":"uint256","indexed":false,"internalType":"uint256"}],"anonymous":false},{"type":"event","name":"OwnershipTransferred","inputs":[{"name":"previousOwner","type":"address","indexed":true,"internalType":"address"},{"name":"newOwner","type":"address","indexed":true,"internalType":"address"}],"anonymous":false},{"type":"event","name":"PointsAwarded","inputs":[{"name":"user","type":"address","indexed":true,"internalType":"address"},{"name":"amount","type":"uint256","indexed":false,"internalType":"uint256"},{"name":"challengeId","type":"uint256","indexed":true,"internalType":"uint256"},{"name":"reason","type":"string","indexed":false,"internalType":"string"}],"anonymous":false},{"type":"event","name":"PointsBurned","inputs":[{"name":"user","type":"address","indexed":true,"internalType":"address"},{"name":"amount","type":"uint256","indexed":false,"internalType":"uint256"}],"anonymous":false},{"type":"event","name":"PointsManagerUpdated","inputs":[{"name":"newManager","type":"address","indexed":true,"internalType":"address"}],"anonymous":false},{"type":"event","name":"PointsTransferred","inputs":[{"name":"from","type":"address","indexed":true,"internalType":"address"},{"name":"to","type":"address","indexed":true,"internalType":"address"},{"name":"amount","type":"uint256","indexed":false,"internalType":"uint256"}],"anonymous":false},{"type":"event","name":"Transfer","inputs":[{"name":"from","type":"address","indexed":true,"internalType":"address"},{"name":"to","type":"address","indexed":true,"internalType":"address"},{"name":"value","type":"uint256","indexed":false,"internalType":"uint256"}],"anonymous":false},{"type":"error","name":"ERC20InsufficientAllowance","inputs":[{"name":"spender","type":"address","internalType":"address"},{"name":"allowance","type":"uint256","internalType":"uint256"},{"name":"needed","type":"uint256","internalType":"uint256"}]},{"type":"error","name":"ERC20InsufficientBalance","inputs":[{"name":"sender","type":"address","internalType":"address"},{"name":"balance","type":"uint256","internalType":"uint256"},{"name":"needed","type":"uint256","internalType":"uint256"}]},{"type":"error","name":"ERC20InvalidApprover","inputs":[{"name":"approver","type":"address","internalType":"address"}]},{"type":"error","name":"ERC20InvalidReceiver","inputs":[{"name":"receiver","type":"address","internalType":"address"}]},{"type":"error","name":"ERC20InvalidSender","inputs":[{"name":"sender","type":"address","internalType":"address"}]},{"type":"error","name":"ERC20InvalidSpender","inputs":[{"name":"spender","type":"address","internalType":"address"}]},{"type":"error","name":"OwnableInvalidOwner","inputs":[{"name":"owner","type":"address","internalType":"address"}]},{"type":"error","name":"OwnableUnauthorizedAccount","inputs":[{"name":"account","type":"address","internalType":"address"}]}],"bytecode":{"object":"0x60806040523461041a57604080519081016001600160401b03811182821017610322576040908152600d82526c42616e74616820506f696e747360981b602083015280519081016001600160401b038111828210176103225760405260048152634250545360e01b602082015281516001600160401b03811161032257600354600181811c91168015610410575b602082101461030457601f81116103a2575b50602092601f821160011461034157928192935f92610336575b50508160011b915f199060031b1c1916176003555b80516001600160401b03811161032257600454600181811c91168015610318575b602082101461030457601f8111610296575b50602091601f8211600114610236579181925f9261022b575b50508160011b915f199060031b1c1916176004555b33156102185760058054336001600160a01b0319821681179092556001600160a01b03167f8be0079c531659141344cd1fd0a4f28419497f9722a3daafe3b4186f6b6457e05f80a3600680546001600160a01b0319163317905560025469d3c21bcecceda1000000810190811061020457600255335f525f60205260405f2069d3c21bcecceda1000000815401905560405169d3c21bcecceda100000081525f7fddf252ad1be2c89b69c2b068fc378daa952ba7f163c4a11628f55a4df523b3ef60203393a3604051610e23908161041f8239f35b634e487b7160e01b5f52601160045260245ffd5b631e4fbdf760e01b5f525f60045260245ffd5b015190505f8061011a565b601f1982169260045f52805f20915f5b85811061027e57508360019510610266575b505050811b0160045561012f565b01515f1960f88460031b161c191690555f8080610258565b91926020600181928685015181550194019201610246565b818111156101015760045f52601f820160051c7f8a35acfbc15ff81a39ae7d344fd709f28e8600b4aa8c65c6b64bfe7fe36bd19b602084106102fc575b81601f9101920160051c03905f5b8281106102ef575050610101565b5f828201556001016102e1565b5f91506102d3565b634e487b7160e01b5f52602260045260245ffd5b90607f16906100ef565b634e487b7160e01b5f52604160045260245ffd5b015190505f806100b9565b601f1982169360035f52805f20915f5b86811061038a5750836001959610610372575b505050811b016003556100ce565b01515f1960f88460031b161c191690555f8080610364565b91926020600181928685015181550194019201610351565b8181111561009f5760035f52601f820160051c7fc2575a0e9e593c00f959f8c92f12db2869c3395a3b0502d05e2516446f71f85b60208410610408575b81601f9101920160051c03905f5b8281106103fb57505061009f565b5f828201556001016103ed565b5f91506103df565b90607f169061008d565b5f80fdfe6080806040526004361015610012575f80fd5b5f3560e01c90816306fdde0314610a6e57508063095ea7b3146109c6578063145dc5fa1461021d57806318160ddd146109a957806323b872dd14610971578063313ce56714610956578063326f823f1461085f57806342966c681461084257806370a082311461080b578063715018a6146107b057806379cc67901461077e5780637f86285c146105965780638da5cb5b1461056e578063904b5f031461054657806395d89b411461042b578063a6924f9d14610119578063a9059cbb146103fa578063baa3c7cf14610302578063cae42a0814610255578063d53730791461021d578063dd62ed3e146101cd578063f2fde38b146101475763f71f58b014610119575f80fd5b34610143576020366003190112610143576004355f526008602052602060405f2054604051908152f35b5f80fd5b3461014357602036600319011261014357610160610b67565b610168610dc6565b6001600160a01b031680156101ba57600580546001600160a01b0319811683179091556001600160a01b03167f8be0079c531659141344cd1fd0a4f28419497f9722a3daafe3b4186f6b6457e05f80a3005b631e4fbdf760e01b5f525f60045260245ffd5b34610143576040366003190112610143576101e6610b67565b6101ee610b7d565b6001600160a01b039182165f908152600160209081526040808320949093168252928352819020549051908152f35b34610143576020366003190112610143576001600160a01b0361023e610b67565b165f526007602052602060405f2054604051908152f35b346101435760203660031901126101435761026e610b67565b610276610dc6565b6001600160a01b031680156102bd57600680546001600160a01b031916821790557f7619eb3b0b2346250e2839a10da35fc58eea3632c6f045e8abffa1864bce25515f80a2005b60405162461bcd60e51b815260206004820152601760248201527f496e76616c6964206d616e6167657220616464726573730000000000000000006044820152606490fd5b346101435760403660031901126101435761031b610b67565b60243561033360018060a01b03600654163314610b93565b60018060a01b03821691825f525f6020528160405f2054106103b5578161035991610d42565b815f52600760205260405f208054918083039283116103a1577fb0f2e2c9b12547a7425feac9e52f454451705c31972086a5a0e563fc5273f7099260209255604051908152a2005b634e487b7160e01b5f52601160045260245ffd5b60405162461bcd60e51b815260206004820152601b60248201527f496e73756666696369656e7420706f696e74732062616c616e636500000000006044820152606490fd5b3461014357604036600319011261014357610420610416610b67565b6024359033610c85565b602060405160018152f35b34610143575f366003190112610143576040515f6004548060011c9060018116801561053c575b6020831081146105285782855290811561050c57506001146104b7575b50819003601f01601f191681019067ffffffffffffffff8211818310176104a35761049f82918260405282610b3d565b0390f35b634e487b7160e01b5f52604160045260245ffd5b905060045f527f8a35acfbc15ff81a39ae7d344fd709f28e8600b4aa8c65c6b64bfe7fe36bd19b5f905b8282106104f65750602091508201018261046f565b60018160209254838588010152019101906104e1565b90506020925060ff191682840152151560051b8201018261046f565b634e487b7160e01b5f52602260045260245ffd5b91607f1691610452565b34610143575f366003190112610143576006546040516001600160a01b039091168152602090f35b34610143575f366003190112610143576005546040516001600160a01b039091168152602090f35b34610143576080366003190112610143576105af610b67565b6044359060243560643567ffffffffffffffff811161014357366023820112156101435780600401359267ffffffffffffffff84116101435736602485840101116101435761060960018060a01b03600654163314610b93565b6001600160a01b0316928315610742578215610708577f2c08e77516dc7b6ff86ff32caa4925b6aa8eb346dc35e2975cf62b43698a82df9260609161065082600254610bd5565b600255856106f25781600254036002555b855f7fddf252ad1be2c89b69c2b068fc378daa952ba7f163c4a11628f55a4df523b3ef6020604051868152a3855f52600760205260405f206106a4838254610bd5565b9055865f52600860205260405f206106bd838254610bd5565b905580602460405195869485526040602086015282604086015201848401375f828201840152601f01601f19168101030190a3005b855f525f60205260405f20828154019055610661565b60405162461bcd60e51b81526020600482015260126024820152710416d6f756e74206d757374206265203e20360741b6044820152606490fd5b60405162461bcd60e51b8152602060048201526014602482015273496e76616c69642075736572206164647265737360601b6044820152606490fd5b34610143576040366003190112610143576107ae61079a610b67565b602435906107a9823383610be2565b610d42565b005b34610143575f366003190112610143576107c8610dc6565b600580546001600160a01b031981169091555f906001600160a01b03167f8be0079c531659141344cd1fd0a4f28419497f9722a3daafe3b4186f6b6457e08280a3005b34610143576020366003190112610143576001600160a01b0361082c610b67565b165f525f602052602060405f2054604051908152f35b34610143576020366003190112610143576107ae60043533610d42565b3461014357604036600319011261014357610878610b67565b6001600160a01b0381169060243590821561091d57335f525f6020528160405f2054106108e157816108aa9133610c85565b6040519081527f8368079d4813055221156198c714ea6a6742cfcec7c979383b0085e1cc738dc060203392a3602060405160018152f35b60405162461bcd60e51b8152602060048201526014602482015273496e73756666696369656e742062616c616e636560601b6044820152606490fd5b60405162461bcd60e51b8152602060048201526011602482015270125b9d985b1a59081c9958da5c1a595b9d607a1b6044820152606490fd5b34610143575f36600319011261014357602060405160128152f35b346101435760603660031901126101435761042061098d610b67565b610995610b7d565b604435916109a4833383610be2565b610c85565b34610143575f366003190112610143576020600254604051908152f35b34610143576040366003190112610143576109df610b67565b602435903315610a5b576001600160a01b0316908115610a4857335f52600160205260405f20825f526020528060405f20556040519081527f8c5be1e5ebec7d5bd14f71427d1e84f3dd0314c0f7b2291e5b200ac8c7c3b92560203392a3602060405160018152f35b634a1406b160e11b5f525f60045260245ffd5b63e602df0560e01b5f525f60045260245ffd5b34610143575f366003190112610143575f6003548060011c90600181168015610b33575b6020831081146105285782855290811561050c5750600114610ade5750819003601f01601f191681019067ffffffffffffffff8211818310176104a35761049f82918260405282610b3d565b905060035f527fc2575a0e9e593c00f959f8c92f12db2869c3395a3b0502d05e2516446f71f85b5f905b828210610b1d5750602091508201018261046f565b6001816020925483858801015201910190610b08565b91607f1691610a92565b602060409281835280519182918282860152018484015e5f828201840152601f01601f1916010190565b600435906001600160a01b038216820361014357565b602435906001600160a01b038216820361014357565b15610b9a57565b60405162461bcd60e51b815260206004820152601360248201527227b7363c903837b4b73a399036b0b730b3b2b960691b6044820152606490fd5b919082018092116103a157565b6001600160a01b039081165f818152600160209081526040808320948616835293905291909120549291905f198410610c1c575b50505050565b828410610c62578015610a5b576001600160a01b03821615610a48575f52600160205260405f209060018060a01b03165f5260205260405f20910390555f808080610c16565b508290637dc7a0d960e11b5f5260018060a01b031660045260245260445260645ffd5b6001600160a01b0316908115610d2f576001600160a01b0316918215610d1c57815f525f60205260405f2054818110610d0357817fddf252ad1be2c89b69c2b068fc378daa952ba7f163c4a11628f55a4df523b3ef92602092855f525f84520360405f2055845f525f825260405f20818154019055604051908152a3565b8263391434e360e21b5f5260045260245260445260645ffd5b63ec442f0560e01b5f525f60045260245ffd5b634b637e8f60e11b5f525f60045260245ffd5b9091906001600160a01b03168015610d2f57805f525f60205260405f2054838110610dac576020845f94957fddf252ad1be2c89b69c2b068fc378daa952ba7f163c4a11628f55a4df523b3ef938587528684520360408620558060025403600255604051908152a3565b915063391434e360e21b5f5260045260245260445260645ffd5b6005546001600160a01b03163303610dda57565b63118cdaa760e01b5f523360045260245ffdfea2646970667358221220b82a0901b044ef01a1e8c00198627f413d2671bf25e5bc2b4c60b9d77c9e725264736f6c63430008210033","linkReferences":{}},"methodIdentifiers":{"allowance(address,address)":"dd62ed3e","approve(address,uint256)":"095ea7b3","awardPoints(address,uint256,uint256,string)":"7f86285c","balanceOf(address)":"70a08231","burn(uint256)":"42966c68","burnFrom(address,uint256)":"79cc6790","burnPointsFrom(address,uint256)":"baa3c7cf","challengePointsAwarded(uint256)":"f71f58b0","decimals()":"313ce567","getChallengePoints(uint256)":"a6924f9d","getUserPointsBalance(address)":"145dc5fa","name()":"06fdde03","owner()":"8da5cb5b","pointsManager()":"904b5f03","renounceOwnership()":"715018a6","setPointsManager(address)":"cae42a08","symbol()":"95d89b41","totalSupply()":"18160ddd","transfer(address,uint256)":"a9059cbb","transferFrom(address,address,uint256)":"23b872dd","transferOwnership(address)":"f2fde38b","transferPoints(address,uint256)":"326f823f","userPointsBalance(address)":"d5373079"},"id":43}